{
  "contracts/PayspecV2.sol": {
    "Payspec": {
      "abi": [
        {
          "inputs": [],
          "stateMutability": "nonpayable",
          "type": "constructor"
        },
        {
          "anonymous": false,
          "inputs": [
            {
              "indexed": false,
              "internalType": "bytes32",
              "name": "uuid",
              "type": "bytes32"
            }
          ],
          "name": "CancelledInvoice",
          "type": "event"
        },
        {
          "anonymous": false,
          "inputs": [
            {
              "indexed": false,
              "internalType": "bytes32",
              "name": "uuid",
              "type": "bytes32"
            }
          ],
          "name": "CreatedInvoice",
          "type": "event"
        },
        {
          "anonymous": false,
          "inputs": [
            {
              "indexed": true,
              "internalType": "address",
              "name": "previousOwner",
              "type": "address"
            },
            {
              "indexed": true,
              "internalType": "address",
              "name": "newOwner",
              "type": "address"
            }
          ],
          "name": "OwnershipTransferred",
          "type": "event"
        },
        {
          "anonymous": false,
          "inputs": [
            {
              "indexed": false,
              "internalType": "bytes32",
              "name": "uuid",
              "type": "bytes32"
            },
            {
              "indexed": false,
              "internalType": "address",
              "name": "from",
              "type": "address"
            }
          ],
          "name": "PaidInvoice",
          "type": "event"
        },
        {
          "inputs": [
            {
              "internalType": "string",
              "name": "description",
              "type": "string"
            },
            {
              "internalType": "uint256",
              "name": "nonce",
              "type": "uint256"
            },
            {
              "internalType": "address",
              "name": "token",
              "type": "address"
            },
            {
              "internalType": "uint256",
              "name": "amountDue",
              "type": "uint256"
            },
            {
              "internalType": "address",
              "name": "payTo",
              "type": "address"
            },
            {
              "internalType": "address[]",
              "name": "feeAddresses",
              "type": "address[]"
            },
            {
              "internalType": "uint256[]",
              "name": "feePercents",
              "type": "uint256[]"
            },
            {
              "internalType": "uint256",
              "name": "ethBlockExpiresAt",
              "type": "uint256"
            },
            {
              "internalType": "bytes32",
              "name": "expecteduuid",
              "type": "bytes32"
            }
          ],
          "name": "cancelInvoice",
          "outputs": [
            {
              "internalType": "bool",
              "name": "",
              "type": "bool"
            }
          ],
          "stateMutability": "nonpayable",
          "type": "function"
        },
        {
          "inputs": [
            {
              "internalType": "bytes32",
              "name": "",
              "type": "bytes32"
            }
          ],
          "name": "cancelledInvoiceUUIDs",
          "outputs": [
            {
              "internalType": "bool",
              "name": "",
              "type": "bool"
            }
          ],
          "stateMutability": "view",
          "type": "function"
        },
        {
          "inputs": [],
          "name": "contractVersion",
          "outputs": [
            {
              "internalType": "uint256",
              "name": "",
              "type": "uint256"
            }
          ],
          "stateMutability": "view",
          "type": "function"
        },
        {
          "inputs": [
            {
              "internalType": "string",
              "name": "description",
              "type": "string"
            },
            {
              "internalType": "uint256",
              "name": "nonce",
              "type": "uint256"
            },
            {
              "internalType": "address",
              "name": "token",
              "type": "address"
            },
            {
              "internalType": "uint256",
              "name": "amountDue",
              "type": "uint256"
            },
            {
              "internalType": "address",
              "name": "payTo",
              "type": "address"
            },
            {
              "internalType": "address[]",
              "name": "feeAddresses",
              "type": "address[]"
            },
            {
              "internalType": "uint256[]",
              "name": "feePercents",
              "type": "uint256[]"
            },
            {
              "internalType": "uint256",
              "name": "ethBlockExpiresAt",
              "type": "uint256"
            },
            {
              "internalType": "bytes32",
              "name": "expecteduuid",
              "type": "bytes32"
            }
          ],
          "name": "createAndPayInvoice",
          "outputs": [
            {
              "internalType": "bool",
              "name": "",
              "type": "bool"
            }
          ],
          "stateMutability": "payable",
          "type": "function"
        },
        {
          "inputs": [
            {
              "internalType": "bytes32",
              "name": "invoiceUUID",
              "type": "bytes32"
            }
          ],
          "name": "getInvoiceAmountPaid",
          "outputs": [
            {
              "internalType": "uint256",
              "name": "",
              "type": "uint256"
            }
          ],
          "stateMutability": "view",
          "type": "function"
        },
        {
          "inputs": [
            {
              "internalType": "bytes32",
              "name": "invoiceUUID",
              "type": "bytes32"
            }
          ],
          "name": "getInvoiceDescription",
          "outputs": [
            {
              "internalType": "string",
              "name": "",
              "type": "string"
            }
          ],
          "stateMutability": "view",
          "type": "function"
        },
        {
          "inputs": [
            {
              "internalType": "bytes32",
              "name": "invoiceUUID",
              "type": "bytes32"
            }
          ],
          "name": "getInvoiceEthBlockPaidAt",
          "outputs": [
            {
              "internalType": "uint256",
              "name": "",
              "type": "uint256"
            }
          ],
          "stateMutability": "view",
          "type": "function"
        },
        {
          "inputs": [
            {
              "internalType": "bytes32",
              "name": "invoiceUUID",
              "type": "bytes32"
            }
          ],
          "name": "getInvoicePayer",
          "outputs": [
            {
              "internalType": "address",
              "name": "",
              "type": "address"
            }
          ],
          "stateMutability": "view",
          "type": "function"
        },
        {
          "inputs": [
            {
              "internalType": "bytes32",
              "name": "invoiceUUID",
              "type": "bytes32"
            }
          ],
          "name": "getInvoiceTokenCurrency",
          "outputs": [
            {
              "internalType": "address",
              "name": "",
              "type": "address"
            }
          ],
          "stateMutability": "view",
          "type": "function"
        },
        {
          "inputs": [
            {
              "internalType": "string",
              "name": "description",
              "type": "string"
            },
            {
              "internalType": "uint256",
              "name": "nonce",
              "type": "uint256"
            },
            {
              "internalType": "address",
              "name": "token",
              "type": "address"
            },
            {
              "internalType": "uint256",
              "name": "amountDue",
              "type": "uint256"
            },
            {
              "internalType": "address",
              "name": "payTo",
              "type": "address"
            },
            {
              "internalType": "address[]",
              "name": "feeAddresses",
              "type": "address[]"
            },
            {
              "internalType": "uint256[]",
              "name": "feePercents",
              "type": "uint256[]"
            },
            {
              "internalType": "uint256",
              "name": "expiresAt",
              "type": "uint256"
            }
          ],
          "name": "getInvoiceUUID",
          "outputs": [
            {
              "internalType": "bytes32",
              "name": "uuid",
              "type": "bytes32"
            }
          ],
          "stateMutability": "view",
          "type": "function"
        },
        {
          "inputs": [
            {
              "internalType": "bytes32",
              "name": "invoiceUUID",
              "type": "bytes32"
            }
          ],
          "name": "invoiceExpiresAt",
          "outputs": [
            {
              "internalType": "uint256",
              "name": "",
              "type": "uint256"
            }
          ],
          "stateMutability": "view",
          "type": "function"
        },
        {
          "inputs": [
            {
              "internalType": "bytes32",
              "name": "invoiceUUID",
              "type": "bytes32"
            }
          ],
          "name": "invoiceHasExpired",
          "outputs": [
            {
              "internalType": "bool",
              "name": "",
              "type": "bool"
            }
          ],
          "stateMutability": "view",
          "type": "function"
        },
        {
          "inputs": [
            {
              "internalType": "bytes32",
              "name": "invoiceUUID",
              "type": "bytes32"
            }
          ],
          "name": "invoiceWasCancelled",
          "outputs": [
            {
              "internalType": "bool",
              "name": "",
              "type": "bool"
            }
          ],
          "stateMutability": "view",
          "type": "function"
        },
        {
          "inputs": [
            {
              "internalType": "bytes32",
              "name": "invoiceUUID",
              "type": "bytes32"
            }
          ],
          "name": "invoiceWasCreated",
          "outputs": [
            {
              "internalType": "bool",
              "name": "",
              "type": "bool"
            }
          ],
          "stateMutability": "view",
          "type": "function"
        },
        {
          "inputs": [
            {
              "internalType": "bytes32",
              "name": "invoiceUUID",
              "type": "bytes32"
            }
          ],
          "name": "invoiceWasDisabled",
          "outputs": [
            {
              "internalType": "bool",
              "name": "",
              "type": "bool"
            }
          ],
          "stateMutability": "view",
          "type": "function"
        },
        {
          "inputs": [
            {
              "internalType": "bytes32",
              "name": "invoiceUUID",
              "type": "bytes32"
            }
          ],
          "name": "invoiceWasPaid",
          "outputs": [
            {
              "internalType": "bool",
              "name": "",
              "type": "bool"
            }
          ],
          "stateMutability": "view",
          "type": "function"
        },
        {
          "inputs": [
            {
              "internalType": "bytes32",
              "name": "",
              "type": "bytes32"
            }
          ],
          "name": "invoices",
          "outputs": [
            {
              "internalType": "bytes32",
              "name": "uuid",
              "type": "bytes32"
            },
            {
              "internalType": "string",
              "name": "description",
              "type": "string"
            },
            {
              "internalType": "uint256",
              "name": "nonce",
              "type": "uint256"
            },
            {
              "internalType": "bool",
              "name": "created",
              "type": "bool"
            },
            {
              "internalType": "address",
              "name": "token",
              "type": "address"
            },
            {
              "internalType": "uint256",
              "name": "amountDue",
              "type": "uint256"
            },
            {
              "internalType": "address",
              "name": "payTo",
              "type": "address"
            },
            {
              "internalType": "address",
              "name": "paidBy",
              "type": "address"
            },
            {
              "internalType": "uint256",
              "name": "amountPaid",
              "type": "uint256"
            },
            {
              "internalType": "uint256",
              "name": "ethBlockPaidAt",
              "type": "uint256"
            },
            {
              "internalType": "uint256",
              "name": "ethBlockExpiresAt",
              "type": "uint256"
            }
          ],
          "stateMutability": "view",
          "type": "function"
        },
        {
          "inputs": [],
          "name": "lockContract",
          "outputs": [],
          "stateMutability": "nonpayable",
          "type": "function"
        },
        {
          "inputs": [],
          "name": "owner",
          "outputs": [
            {
              "internalType": "address",
              "name": "",
              "type": "address"
            }
          ],
          "stateMutability": "view",
          "type": "function"
        },
        {
          "inputs": [],
          "name": "renounceOwnership",
          "outputs": [],
          "stateMutability": "nonpayable",
          "type": "function"
        },
        {
          "inputs": [
            {
              "internalType": "address",
              "name": "newOwner",
              "type": "address"
            }
          ],
          "name": "transferOwnership",
          "outputs": [],
          "stateMutability": "nonpayable",
          "type": "function"
        }
      ],
      "devdoc": {
        "kind": "dev",
        "methods": {
          "owner()": {
            "details": "Returns the address of the current owner."
          },
          "renounceOwnership()": {
            "details": "Leaves the contract without owner. It will not be possible to call `onlyOwner` functions anymore. Can only be called by the current owner. NOTE: Renouncing ownership will leave the contract without an owner, thereby removing any functionality that is only available to the owner."
          },
          "transferOwnership(address)": {
            "details": "Transfers ownership of the contract to a new account (`newOwner`). Can only be called by the current owner."
          }
        },
        "version": 1
      },
      "evm": {
        "bytecode": {
          "linkReferences": {},
          "object": "60c06040526064608090815250601073ffffffffffffffffffffffffffffffffffffffff1660a09073ffffffffffffffffffffffffffffffffffffffff1660601b8152506000600460006101000a81548160ff0219169083151502179055503480156200006b57600080fd5b506200008c620000806200009960201b60201c565b620000a160201b60201c565b6001808190555062000165565b600033905090565b60008060009054906101000a900473ffffffffffffffffffffffffffffffffffffffff169050816000806101000a81548173ffffffffffffffffffffffffffffffffffffffff021916908373ffffffffffffffffffffffffffffffffffffffff1602179055508173ffffffffffffffffffffffffffffffffffffffff168173ffffffffffffffffffffffffffffffffffffffff167f8be0079c531659141344cd1fd0a4f28419497f9722a3daafe3b4186f6b6457e060405160405180910390a35050565b60805160a05160601c612aa06200019560003960008181610c52015261165701526000610a360152612aa06000f3fe60806040526004361061012a5760003560e01c80638da5cb5b116100ab578063b85398e41161006f578063b85398e414610452578063c3eaf5bf1461048f578063f20b93ea146104cc578063f2fde38b14610509578063f36ad91214610532578063f8a8a076146105625761012a565b80638da5cb5b146103455780638f65cc57146103705780639f7aa730146103ad578063a0a8e460146103ea578063aede7096146104155761012a565b806355f47162116100f257806355f47162146102605780635a722a071461029d5780636e76dc5f146102da578063715018a614610317578063753868e31461032e5761012a565b806302fd4b821461012f57806308ce5e5a1461016c5780633d952b89146101a9578063401de830146101e657806344b2c1f414610223575b600080fd5b34801561013b57600080fd5b5061015660048036038101906101519190611b5e565b6105a9565b604051610163919061216f565b60405180910390f35b34801561017857600080fd5b50610193600480360381019061018e9190611b5e565b6105cb565b6040516101a0919061216f565b60405180910390f35b3480156101b557600080fd5b506101d060048036038101906101cb9190611b8b565b6105f4565b6040516101dd919061218a565b60405180910390f35b3480156101f257600080fd5b5061020d60048036038101906102089190611b5e565b610646565b60405161021a919061211d565b60405180910390f35b34801561022f57600080fd5b5061024a60048036038101906102459190611b5e565b610686565b6040516102579190612382565b60405180910390f35b34801561026c57600080fd5b5061028760048036038101906102829190611b5e565b6106a6565b6040516102949190612382565b60405180910390f35b3480156102a957600080fd5b506102c460048036038101906102bf9190611c95565b6106c6565b6040516102d1919061216f565b60405180910390f35b3480156102e657600080fd5b5061030160048036038101906102fc9190611b5e565b6107e2565b60405161030e919061211d565b60405180910390f35b34801561032357600080fd5b5061032c610822565b005b34801561033a57600080fd5b506103436108aa565b005b34801561035157600080fd5b5061035a610943565b604051610367919061211d565b60405180910390f35b34801561037c57600080fd5b5061039760048036038101906103929190611b5e565b61096c565b6040516103a49190612280565b60405180910390f35b3480156103b957600080fd5b506103d460048036038101906103cf9190611b5e565b610a14565b6040516103e1919061216f565b60405180910390f35b3480156103f657600080fd5b506103ff610a34565b60405161040c9190612382565b60405180910390f35b34801561042157600080fd5b5061043c60048036038101906104379190611b5e565b610a58565b604051610449919061216f565b60405180910390f35b34801561045e57600080fd5b5061047960048036038101906104749190611b5e565b610a85565b604051610486919061216f565b60405180910390f35b34801561049b57600080fd5b506104b660048036038101906104b19190611b5e565b610abe565b6040516104c3919061216f565b60405180910390f35b3480156104d857600080fd5b506104f360048036038101906104ee9190611b5e565b610ae8565b6040516105009190612382565b60405180910390f35b34801561051557600080fd5b50610530600480360381019061052b9190611b04565b610b08565b005b61054c60048036038101906105479190611c95565b610c00565b604051610559919061216f565b60405180910390f35b34801561056e57600080fd5b5061058960048036038101906105849190611b5e565b610d70565b6040516105a09b9a999897969594939291906121ce565b60405180910390f35b60006105b482610abe565b806105c457506105c3826105cb565b5b9050919050565b6000806105d783610686565b141580156105ed57506105e982610686565b4310155b9050919050565b6000803090506000818b8b8b8b8b8b8b8b60405160200161061d99989796959493929190612086565b604051602081830303815290604052805190602001209050809250505098975050505050505050565b60006002600083815260200190815260200160002060080160009054906101000a900473ffffffffffffffffffffffffffffffffffffffff169050919050565b600060026000838152602001908152602001600020600b01549050919050565b600060026000838152602001908152602001600020600a01549050919050565b60008033905060006106de8c8c8c8c8c8c8c8c6105f4565b9050600460009054906101000a900460ff16156106fa57600080fd5b83811461070657600080fd5b8173ffffffffffffffffffffffffffffffffffffffff168873ffffffffffffffffffffffffffffffffffffffff161461073e57600080fd5b6000151561074b82610a58565b15151461075757600080fd5b6000151561076482610abe565b15151461077057600080fd5b60016003600083815260200190815260200160002060006101000a81548160ff0219169083151502179055507f6e6f742c115dbb4de54708b6c7d1b56f64833c8a15a486ba956575450e011462816040516107cb919061218a565b60405180910390a150509998505050505050505050565b60006002600083815260200190815260200160002060030160019054906101000a900473ffffffffffffffffffffffffffffffffffffffff169050919050565b61082a610ebf565b73ffffffffffffffffffffffffffffffffffffffff16610848610943565b73ffffffffffffffffffffffffffffffffffffffff161461089e576040517f08c379a000000000000000000000000000000000000000000000000000000000815260040161089590612322565b60405180910390fd5b6108a86000610ec7565b565b6108b2610ebf565b73ffffffffffffffffffffffffffffffffffffffff166108d0610943565b73ffffffffffffffffffffffffffffffffffffffff1614610926576040517f08c379a000000000000000000000000000000000000000000000000000000000815260040161091d90612322565b60405180910390fd5b6001600460006101000a81548160ff021916908315150217905550565b60008060009054906101000a900473ffffffffffffffffffffffffffffffffffffffff16905090565b606060026000838152602001908152602001600020600101805461098f90612681565b80601f01602080910402602001604051908101604052809291908181526020018280546109bb90612681565b8015610a085780601f106109dd57610100808354040283529160200191610a08565b820191906000526020600020905b8154815290600101906020018083116109eb57829003601f168201915b50505050509050919050565b60036020528060005260406000206000915054906101000a900460ff1681565b7f000000000000000000000000000000000000000000000000000000000000000081565b60006002600083815260200190815260200160002060030160009054906101000a900460ff169050919050565b60006002600083815260200190815260200160002060040154600260008481526020019081526020016000206009015410159050919050565b60006003600083815260200190815260200160002060009054906101000a900460ff169050919050565b600060026000838152602001908152602001600020600901549050919050565b610b10610ebf565b73ffffffffffffffffffffffffffffffffffffffff16610b2e610943565b73ffffffffffffffffffffffffffffffffffffffff1614610b84576040517f08c379a0000000000000000000000000000000000000000000000000000000008152600401610b7b90612322565b60405180910390fd5b600073ffffffffffffffffffffffffffffffffffffffff168173ffffffffffffffffffffffffffffffffffffffff161415610bf4576040517f08c379a0000000000000000000000000000000000000000000000000000000008152600401610beb906122c2565b60405180910390fd5b610bfd81610ec7565b50565b600060026001541415610c48576040517f08c379a0000000000000000000000000000000000000000000000000000000008152600401610c3f90612362565b60405180910390fd5b60026001819055507f000000000000000000000000000000000000000000000000000000000000000073ffffffffffffffffffffffffffffffffffffffff168873ffffffffffffffffffffffffffffffffffffffff161415610ceb57863414610ce6576040517f08c379a0000000000000000000000000000000000000000000000000000000008152600401610cdd906122a2565b60405180910390fd5b610d2f565b60003414610d2e576040517f08c379a0000000000000000000000000000000000000000000000000000000008152600401610d25906122e2565b60405180910390fd5b5b6000610d428b8b8b8b8b8b8b8b8b610f8b565b9050828114610d5057600080fd5b610d5981611284565b915050600180819055509998505050505050505050565b6002602052806000526040600020600091509050806000015490806001018054610d9990612681565b80601f0160208091040260200160405190810160405280929190818152602001828054610dc590612681565b8015610e125780601f10610de757610100808354040283529160200191610e12565b820191906000526020600020905b815481529060010190602001808311610df557829003601f168201915b5050505050908060020154908060030160009054906101000a900460ff16908060030160019054906101000a900473ffffffffffffffffffffffffffffffffffffffff16908060040154908060050160009054906101000a900473ffffffffffffffffffffffffffffffffffffffff16908060080160009054906101000a900473ffffffffffffffffffffffffffffffffffffffff169080600901549080600a01549080600b015490508b565b600033905090565b60008060009054906101000a900473ffffffffffffffffffffffffffffffffffffffff169050816000806101000a81548173ffffffffffffffffffffffffffffffffffffffff021916908373ffffffffffffffffffffffffffffffffffffffff1602179055508173ffffffffffffffffffffffffffffffffffffffff168173ffffffffffffffffffffffffffffffffffffffff167f8be0079c531659141344cd1fd0a4f28419497f9722a3daafe3b4186f6b6457e060405160405180910390a35050565b600080610f9e8b8b8b8b8b8b8b8b6105f4565b9050600460009054906101000a900460ff1615610fba57600080fd5b828114610fc657600080fd5b6000801b600260008381526020019081526020016000206000015414610feb57600080fd5b8451865114610ff957600080fd5b604051806101a001604052808281526020018c81526020018b81526020016001151581526020018a73ffffffffffffffffffffffffffffffffffffffff1681526020018981526020018873ffffffffffffffffffffffffffffffffffffffff168152602001878152602001868152602001600073ffffffffffffffffffffffffffffffffffffffff168152602001600081526020016000815260200185815250600260008381526020019081526020016000206000820151816000015560208201518160010190805190602001906110d292919061178a565b506040820151816002015560608201518160030160006101000a81548160ff02191690831515021790555060808201518160030160016101000a81548173ffffffffffffffffffffffffffffffffffffffff021916908373ffffffffffffffffffffffffffffffffffffffff16021790555060a0820151816004015560c08201518160050160006101000a81548173ffffffffffffffffffffffffffffffffffffffff021916908373ffffffffffffffffffffffffffffffffffffffff16021790555060e08201518160060190805190602001906111b1929190611810565b506101008201518160070190805190602001906111cf92919061189a565b506101208201518160080160006101000a81548173ffffffffffffffffffffffffffffffffffffffff021916908373ffffffffffffffffffffffffffffffffffffffff160217905550610140820151816009015561016082015181600a015561018082015181600b01559050507fc7ef264b3f844cbb14c2236b9e9682cdb5827cb89858ad61f7d3e7df566ec4c78160405161126b919061218a565b60405180910390a1809150509998505050505050505050565b600080339050600460009054906101000a900460ff16156112a457600080fd5b826002600085815260200190815260200160002060000154146112c657600080fd5b600015156112d384610a85565b1515146112df57600080fd5b600015156112ec846105cb565b1515146112f857600080fd5b6000151561130584610abe565b15151461131157600080fd5b6000805b600260008681526020019081526020016000206006018054905081101561148f5760006064600260008881526020019081526020016000206007018381548110611362576113616127e8565b5b9060005260206000200154611377919061252e565b6002600088815260200190815260200160002060040154611398919061255f565b905061142e6002600088815260200190815260200160002060030160019054906101000a900473ffffffffffffffffffffffffffffffffffffffff1685600260008a815260200190815260200160002060060185815481106113fd576113fc6127e8565b5b9060005260206000200160009054906101000a900473ffffffffffffffffffffffffffffffffffffffff1684611653565b61146d576040517f08c379a000000000000000000000000000000000000000000000000000000000815260040161146490612342565b60405180910390fd5b808361147991906124d8565b9250508080611487906126e4565b915050611315565b5060008160026000878152602001908152602001600020600401546114b491906125b9565b905061152e6002600087815260200190815260200160002060030160019054906101000a900473ffffffffffffffffffffffffffffffffffffffff16846002600089815260200190815260200160002060050160009054906101000a900473ffffffffffffffffffffffffffffffffffffffff1684611653565b61156d576040517f08c379a000000000000000000000000000000000000000000000000000000000815260040161156490612302565b60405180910390fd5b60026000868152602001908152602001600020600401546002600087815260200190815260200160002060090181905550826002600087815260200190815260200160002060080160006101000a81548173ffffffffffffffffffffffffffffffffffffffff021916908373ffffffffffffffffffffffffffffffffffffffff1602179055504360026000878152602001908152602001600020600a01819055507f8c312afe1806eaa44098445e756760724a25f74268c8e3b29276b885713247d0858460405161163f9291906121a5565b60405180910390a160019350505050919050565b60007f000000000000000000000000000000000000000000000000000000000000000073ffffffffffffffffffffffffffffffffffffffff168573ffffffffffffffffffffffffffffffffffffffff1614156116f1578273ffffffffffffffffffffffffffffffffffffffff166108fc839081150290604051600060405180830381858888f193505050501580156116ef573d6000803e3d6000fd5b505b8473ffffffffffffffffffffffffffffffffffffffff166323b872dd8585856040518463ffffffff1660e01b815260040161172e93929190612138565b602060405180830381600087803b15801561174857600080fd5b505af115801561175c573d6000803e3d6000fd5b505050506040513d601f19601f820116820180604052508101906117809190611b31565b9050949350505050565b82805461179690612681565b90600052602060002090601f0160209004810192826117b857600085556117ff565b82601f106117d157805160ff19168380011785556117ff565b828001600101855582156117ff579182015b828111156117fe5782518255916020019190600101906117e3565b5b50905061180c91906118e7565b5090565b828054828255906000526020600020908101928215611889579160200282015b828111156118885782518260006101000a81548173ffffffffffffffffffffffffffffffffffffffff021916908373ffffffffffffffffffffffffffffffffffffffff16021790555091602001919060010190611830565b5b50905061189691906118e7565b5090565b8280548282559060005260206000209081019282156118d6579160200282015b828111156118d55782518255916020019190600101906118ba565b5b5090506118e391906118e7565b5090565b5b808211156119005760008160009055506001016118e8565b5090565b6000611917611912846123c2565b61239d565b9050808382526020820190508285602086028201111561193a5761193961284b565b5b60005b8581101561196a57816119508882611a26565b84526020840193506020830192505060018101905061193d565b5050509392505050565b6000611987611982846123ee565b61239d565b905080838252602082019050828560208602820111156119aa576119a961284b565b5b60005b858110156119da57816119c08882611aef565b8452602084019350602083019250506001810190506119ad565b5050509392505050565b60006119f76119f28461241a565b61239d565b905082815260208101848484011115611a1357611a12612850565b5b611a1e84828561263f565b509392505050565b600081359050611a3581612a0e565b92915050565b600082601f830112611a5057611a4f612846565b5b8135611a60848260208601611904565b91505092915050565b600082601f830112611a7e57611a7d612846565b5b8135611a8e848260208601611974565b91505092915050565b600081519050611aa681612a25565b92915050565b600081359050611abb81612a3c565b92915050565b600082601f830112611ad657611ad5612846565b5b8135611ae68482602086016119e4565b91505092915050565b600081359050611afe81612a53565b92915050565b600060208284031215611b1a57611b1961285a565b5b6000611b2884828501611a26565b91505092915050565b600060208284031215611b4757611b4661285a565b5b6000611b5584828501611a97565b91505092915050565b600060208284031215611b7457611b7361285a565b5b6000611b8284828501611aac565b91505092915050565b600080600080600080600080610100898b031215611bac57611bab61285a565b5b600089013567ffffffffffffffff811115611bca57611bc9612855565b5b611bd68b828c01611ac1565b9850506020611be78b828c01611aef565b9750506040611bf88b828c01611a26565b9650506060611c098b828c01611aef565b9550506080611c1a8b828c01611a26565b94505060a089013567ffffffffffffffff811115611c3b57611c3a612855565b5b611c478b828c01611a3b565b93505060c089013567ffffffffffffffff811115611c6857611c67612855565b5b611c748b828c01611a69565b92505060e0611c858b828c01611aef565b9150509295985092959890939650565b60008060008060008060008060006101208a8c031215611cb857611cb761285a565b5b60008a013567ffffffffffffffff811115611cd657611cd5612855565b5b611ce28c828d01611ac1565b9950506020611cf38c828d01611aef565b9850506040611d048c828d01611a26565b9750506060611d158c828d01611aef565b9650506080611d268c828d01611a26565b95505060a08a013567ffffffffffffffff811115611d4757611d46612855565b5b611d538c828d01611a3b565b94505060c08a013567ffffffffffffffff811115611d7457611d73612855565b5b611d808c828d01611a69565b93505060e0611d918c828d01611aef565b925050610100611da38c828d01611aac565b9150509295985092959850929598565b6000611dbf8383611df2565b60208301905092915050565b6000611dd78383612060565b60208301905092915050565b611dec816125ed565b82525050565b611dfb816125ed565b82525050565b611e12611e0d826125ed565b61272d565b82525050565b6000611e238261246b565b611e2d81856124a6565b9350611e388361244b565b8060005b83811015611e69578151611e508882611db3565b9750611e5b8361248c565b925050600181019050611e3c565b5085935050505092915050565b6000611e8182612476565b611e8b81856124b1565b9350611e968361245b565b8060005b83811015611ec7578151611eae8882611dcb565b9750611eb983612499565b925050600181019050611e9a565b5085935050505092915050565b611edd816125ff565b82525050565b611eec8161260b565b82525050565b6000611efd82612481565b611f0781856124bc565b9350611f1781856020860161264e565b611f208161285f565b840191505092915050565b6000611f3682612481565b611f4081856124cd565b9350611f5081856020860161264e565b80840191505092915050565b6000611f696026836124bc565b9150611f748261287d565b604082019050919050565b6000611f8c6026836124bc565b9150611f97826128cc565b604082019050919050565b6000611faf602a836124bc565b9150611fba8261291b565b604082019050919050565b6000611fd26019836124bc565b9150611fdd8261296a565b602082019050919050565b6000611ff56020836124bc565b915061200082612993565b602082019050919050565b6000612018601e836124bc565b9150612023826129bc565b602082019050919050565b600061203b601f836124bc565b9150612046826129e5565b602082019050919050565b61205a81612635565b82525050565b61206981612635565b82525050565b61208061207b82612635565b612751565b82525050565b6000612092828c611e01565b6014820191506120a2828b611f2b565b91506120ae828a61206f565b6020820191506120be8289611e01565b6014820191506120ce828861206f565b6020820191506120de8287611e01565b6014820191506120ee8286611e18565b91506120fa8285611e76565b9150612106828461206f565b6020820191508190509a9950505050505050505050565b60006020820190506121326000830184611de3565b92915050565b600060608201905061214d6000830186611de3565b61215a6020830185611de3565b6121676040830184612051565b949350505050565b60006020820190506121846000830184611ed4565b92915050565b600060208201905061219f6000830184611ee3565b92915050565b60006040820190506121ba6000830185611ee3565b6121c76020830184611de3565b9392505050565b6000610160820190506121e4600083018e611ee3565b81810360208301526121f6818d611ef2565b9050612205604083018c612051565b612212606083018b611ed4565b61221f608083018a611de3565b61222c60a0830189612051565b61223960c0830188611de3565b61224660e0830187611de3565b612254610100830186612051565b612262610120830185612051565b612270610140830184612051565b9c9b505050505050505050505050565b6000602082019050818103600083015261229a8184611ef2565b905092915050565b600060208201905081810360008301526122bb81611f5c565b9050919050565b600060208201905081810360008301526122db81611f7f565b9050919050565b600060208201905081810360008301526122fb81611fa2565b9050919050565b6000602082019050818103600083015261231b81611fc5565b9050919050565b6000602082019050818103600083015261233b81611fe8565b9050919050565b6000602082019050818103600083015261235b8161200b565b9050919050565b6000602082019050818103600083015261237b8161202e565b9050919050565b60006020820190506123976000830184612051565b92915050565b60006123a76123b8565b90506123b382826126b3565b919050565b6000604051905090565b600067ffffffffffffffff8211156123dd576123dc612817565b5b602082029050602081019050919050565b600067ffffffffffffffff82111561240957612408612817565b5b602082029050602081019050919050565b600067ffffffffffffffff82111561243557612434612817565b5b61243e8261285f565b9050602081019050919050565b6000819050602082019050919050565b6000819050602082019050919050565b600081519050919050565b600081519050919050565b600081519050919050565b6000602082019050919050565b6000602082019050919050565b600081905092915050565b600081905092915050565b600082825260208201905092915050565b600081905092915050565b60006124e382612635565b91506124ee83612635565b9250827fffffffffffffffffffffffffffffffffffffffffffffffffffffffffffffffff038211156125235761252261275b565b5b828201905092915050565b600061253982612635565b915061254483612635565b9250826125545761255361278a565b5b828204905092915050565b600061256a82612635565b915061257583612635565b9250817fffffffffffffffffffffffffffffffffffffffffffffffffffffffffffffffff04831182151516156125ae576125ad61275b565b5b828202905092915050565b60006125c482612635565b91506125cf83612635565b9250828210156125e2576125e161275b565b5b828203905092915050565b60006125f882612615565b9050919050565b60008115159050919050565b6000819050919050565b600073ffffffffffffffffffffffffffffffffffffffff82169050919050565b6000819050919050565b82818337600083830152505050565b60005b8381101561266c578082015181840152602081019050612651565b8381111561267b576000848401525b50505050565b6000600282049050600182168061269957607f821691505b602082108114156126ad576126ac6127b9565b5b50919050565b6126bc8261285f565b810181811067ffffffffffffffff821117156126db576126da612817565b5b80604052505050565b60006126ef82612635565b91507fffffffffffffffffffffffffffffffffffffffffffffffffffffffffffffffff8214156127225761272161275b565b5b600182019050919050565b60006127388261273f565b9050919050565b600061274a82612870565b9050919050565b6000819050919050565b7f4e487b7100000000000000000000000000000000000000000000000000000000600052601160045260246000fd5b7f4e487b7100000000000000000000000000000000000000000000000000000000600052601260045260246000fd5b7f4e487b7100000000000000000000000000000000000000000000000000000000600052602260045260246000fd5b7f4e487b7100000000000000000000000000000000000000000000000000000000600052603260045260246000fd5b7f4e487b7100000000000000000000000000000000000000000000000000000000600052604160045260246000fd5b600080fd5b600080fd5b600080fd5b600080fd5b600080fd5b6000601f19601f8301169050919050565b60008160601b9050919050565b7f5472616e73616374696f6e2073656e7420696e636f727265637420455448206160008201527f6d6f756e742e0000000000000000000000000000000000000000000000000000602082015250565b7f4f776e61626c653a206e6577206f776e657220697320746865207a65726f206160008201527f6464726573730000000000000000000000000000000000000000000000000000602082015250565b7f5472616e73616374696f6e2073656e742045544820666f7220616e204552433260008201527f3020696e766f6963652e00000000000000000000000000000000000000000000602082015250565b7f556e61626c6520746f2070617920616d6f756e74206475652e00000000000000600082015250565b7f4f776e61626c653a2063616c6c6572206973206e6f7420746865206f776e6572600082015250565b7f556e61626c6520746f20706179206665657320616d6f756e74206475652e0000600082015250565b7f5265656e7472616e637947756172643a207265656e7472616e742063616c6c00600082015250565b612a17816125ed565b8114612a2257600080fd5b50565b612a2e816125ff565b8114612a3957600080fd5b50565b612a458161260b565b8114612a5057600080fd5b50565b612a5c81612635565b8114612a6757600080fd5b5056fea26469706673582212204b81772f8dac36358160b339b33bda1d0c0b42d2f196ba37ddc68db75ec57bde64736f6c63430008060033",
          "opcodes": "PUSH1 0xC0 PUSH1 0x40 MSTORE PUSH1 0x64 PUSH1 0x80 SWAP1 DUP2 MSTORE POP PUSH1 0x10 PUSH20 0xFFFFFFFFFFFFFFFFFFFFFFFFFFFFFFFFFFFFFFFF AND PUSH1 0xA0 SWAP1 PUSH20 0xFFFFFFFFFFFFFFFFFFFFFFFFFFFFFFFFFFFFFFFF AND PUSH1 0x60 SHL DUP2 MSTORE POP PUSH1 0x0 PUSH1 0x4 PUSH1 0x0 PUSH2 0x100 EXP DUP2 SLOAD DUP2 PUSH1 0xFF MUL NOT AND SWAP1 DUP4 ISZERO ISZERO MUL OR SWAP1 SSTORE POP CALLVALUE DUP1 ISZERO PUSH3 0x6B JUMPI PUSH1 0x0 DUP1 REVERT JUMPDEST POP PUSH3 0x8C PUSH3 0x80 PUSH3 0x99 PUSH1 0x20 SHL PUSH1 0x20 SHR JUMP JUMPDEST PUSH3 0xA1 PUSH1 0x20 SHL PUSH1 0x20 SHR JUMP JUMPDEST PUSH1 0x1 DUP1 DUP2 SWAP1 SSTORE POP PUSH3 0x165 JUMP JUMPDEST PUSH1 0x0 CALLER SWAP1 POP SWAP1 JUMP JUMPDEST PUSH1 0x0 DUP1 PUSH1 0x0 SWAP1 SLOAD SWAP1 PUSH2 0x100 EXP SWAP1 DIV PUSH20 0xFFFFFFFFFFFFFFFFFFFFFFFFFFFFFFFFFFFFFFFF AND SWAP1 POP DUP2 PUSH1 0x0 DUP1 PUSH2 0x100 EXP DUP2 SLOAD DUP2 PUSH20 0xFFFFFFFFFFFFFFFFFFFFFFFFFFFFFFFFFFFFFFFF MUL NOT AND SWAP1 DUP4 PUSH20 0xFFFFFFFFFFFFFFFFFFFFFFFFFFFFFFFFFFFFFFFF AND MUL OR SWAP1 SSTORE POP DUP2 PUSH20 0xFFFFFFFFFFFFFFFFFFFFFFFFFFFFFFFFFFFFFFFF AND DUP2 PUSH20 0xFFFFFFFFFFFFFFFFFFFFFFFFFFFFFFFFFFFFFFFF AND PUSH32 0x8BE0079C531659141344CD1FD0A4F28419497F9722A3DAAFE3B4186F6B6457E0 PUSH1 0x40 MLOAD PUSH1 0x40 MLOAD DUP1 SWAP2 SUB SWAP1 LOG3 POP POP JUMP JUMPDEST PUSH1 0x80 MLOAD PUSH1 0xA0 MLOAD PUSH1 0x60 SHR PUSH2 0x2AA0 PUSH3 0x195 PUSH1 0x0 CODECOPY PUSH1 0x0 DUP2 DUP2 PUSH2 0xC52 ADD MSTORE PUSH2 0x1657 ADD MSTORE PUSH1 0x0 PUSH2 0xA36 ADD MSTORE PUSH2 0x2AA0 PUSH1 0x0 RETURN INVALID PUSH1 0x80 PUSH1 0x40 MSTORE PUSH1 0x4 CALLDATASIZE LT PUSH2 0x12A JUMPI PUSH1 0x0 CALLDATALOAD PUSH1 0xE0 SHR DUP1 PUSH4 0x8DA5CB5B GT PUSH2 0xAB JUMPI DUP1 PUSH4 0xB85398E4 GT PUSH2 0x6F JUMPI DUP1 PUSH4 0xB85398E4 EQ PUSH2 0x452 JUMPI DUP1 PUSH4 0xC3EAF5BF EQ PUSH2 0x48F JUMPI DUP1 PUSH4 0xF20B93EA EQ PUSH2 0x4CC JUMPI DUP1 PUSH4 0xF2FDE38B EQ PUSH2 0x509 JUMPI DUP1 PUSH4 0xF36AD912 EQ PUSH2 0x532 JUMPI DUP1 PUSH4 0xF8A8A076 EQ PUSH2 0x562 JUMPI PUSH2 0x12A JUMP JUMPDEST DUP1 PUSH4 0x8DA5CB5B EQ PUSH2 0x345 JUMPI DUP1 PUSH4 0x8F65CC57 EQ PUSH2 0x370 JUMPI DUP1 PUSH4 0x9F7AA730 EQ PUSH2 0x3AD JUMPI DUP1 PUSH4 0xA0A8E460 EQ PUSH2 0x3EA JUMPI DUP1 PUSH4 0xAEDE7096 EQ PUSH2 0x415 JUMPI PUSH2 0x12A JUMP JUMPDEST DUP1 PUSH4 0x55F47162 GT PUSH2 0xF2 JUMPI DUP1 PUSH4 0x55F47162 EQ PUSH2 0x260 JUMPI DUP1 PUSH4 0x5A722A07 EQ PUSH2 0x29D JUMPI DUP1 PUSH4 0x6E76DC5F EQ PUSH2 0x2DA JUMPI DUP1 PUSH4 0x715018A6 EQ PUSH2 0x317 JUMPI DUP1 PUSH4 0x753868E3 EQ PUSH2 0x32E JUMPI PUSH2 0x12A JUMP JUMPDEST DUP1 PUSH4 0x2FD4B82 EQ PUSH2 0x12F JUMPI DUP1 PUSH4 0x8CE5E5A EQ PUSH2 0x16C JUMPI DUP1 PUSH4 0x3D952B89 EQ PUSH2 0x1A9 JUMPI DUP1 PUSH4 0x401DE830 EQ PUSH2 0x1E6 JUMPI DUP1 PUSH4 0x44B2C1F4 EQ PUSH2 0x223 JUMPI JUMPDEST PUSH1 0x0 DUP1 REVERT JUMPDEST CALLVALUE DUP1 ISZERO PUSH2 0x13B JUMPI PUSH1 0x0 DUP1 REVERT JUMPDEST POP PUSH2 0x156 PUSH1 0x4 DUP1 CALLDATASIZE SUB DUP2 ADD SWAP1 PUSH2 0x151 SWAP2 SWAP1 PUSH2 0x1B5E JUMP JUMPDEST PUSH2 0x5A9 JUMP JUMPDEST PUSH1 0x40 MLOAD PUSH2 0x163 SWAP2 SWAP1 PUSH2 0x216F JUMP JUMPDEST PUSH1 0x40 MLOAD DUP1 SWAP2 SUB SWAP1 RETURN JUMPDEST CALLVALUE DUP1 ISZERO PUSH2 0x178 JUMPI PUSH1 0x0 DUP1 REVERT JUMPDEST POP PUSH2 0x193 PUSH1 0x4 DUP1 CALLDATASIZE SUB DUP2 ADD SWAP1 PUSH2 0x18E SWAP2 SWAP1 PUSH2 0x1B5E JUMP JUMPDEST PUSH2 0x5CB JUMP JUMPDEST PUSH1 0x40 MLOAD PUSH2 0x1A0 SWAP2 SWAP1 PUSH2 0x216F JUMP JUMPDEST PUSH1 0x40 MLOAD DUP1 SWAP2 SUB SWAP1 RETURN JUMPDEST CALLVALUE DUP1 ISZERO PUSH2 0x1B5 JUMPI PUSH1 0x0 DUP1 REVERT JUMPDEST POP PUSH2 0x1D0 PUSH1 0x4 DUP1 CALLDATASIZE SUB DUP2 ADD SWAP1 PUSH2 0x1CB SWAP2 SWAP1 PUSH2 0x1B8B JUMP JUMPDEST PUSH2 0x5F4 JUMP JUMPDEST PUSH1 0x40 MLOAD PUSH2 0x1DD SWAP2 SWAP1 PUSH2 0x218A JUMP JUMPDEST PUSH1 0x40 MLOAD DUP1 SWAP2 SUB SWAP1 RETURN JUMPDEST CALLVALUE DUP1 ISZERO PUSH2 0x1F2 JUMPI PUSH1 0x0 DUP1 REVERT JUMPDEST POP PUSH2 0x20D PUSH1 0x4 DUP1 CALLDATASIZE SUB DUP2 ADD SWAP1 PUSH2 0x208 SWAP2 SWAP1 PUSH2 0x1B5E JUMP JUMPDEST PUSH2 0x646 JUMP JUMPDEST PUSH1 0x40 MLOAD PUSH2 0x21A SWAP2 SWAP1 PUSH2 0x211D JUMP JUMPDEST PUSH1 0x40 MLOAD DUP1 SWAP2 SUB SWAP1 RETURN JUMPDEST CALLVALUE DUP1 ISZERO PUSH2 0x22F JUMPI PUSH1 0x0 DUP1 REVERT JUMPDEST POP PUSH2 0x24A PUSH1 0x4 DUP1 CALLDATASIZE SUB DUP2 ADD SWAP1 PUSH2 0x245 SWAP2 SWAP1 PUSH2 0x1B5E JUMP JUMPDEST PUSH2 0x686 JUMP JUMPDEST PUSH1 0x40 MLOAD PUSH2 0x257 SWAP2 SWAP1 PUSH2 0x2382 JUMP JUMPDEST PUSH1 0x40 MLOAD DUP1 SWAP2 SUB SWAP1 RETURN JUMPDEST CALLVALUE DUP1 ISZERO PUSH2 0x26C JUMPI PUSH1 0x0 DUP1 REVERT JUMPDEST POP PUSH2 0x287 PUSH1 0x4 DUP1 CALLDATASIZE SUB DUP2 ADD SWAP1 PUSH2 0x282 SWAP2 SWAP1 PUSH2 0x1B5E JUMP JUMPDEST PUSH2 0x6A6 JUMP JUMPDEST PUSH1 0x40 MLOAD PUSH2 0x294 SWAP2 SWAP1 PUSH2 0x2382 JUMP JUMPDEST PUSH1 0x40 MLOAD DUP1 SWAP2 SUB SWAP1 RETURN JUMPDEST CALLVALUE DUP1 ISZERO PUSH2 0x2A9 JUMPI PUSH1 0x0 DUP1 REVERT JUMPDEST POP PUSH2 0x2C4 PUSH1 0x4 DUP1 CALLDATASIZE SUB DUP2 ADD SWAP1 PUSH2 0x2BF SWAP2 SWAP1 PUSH2 0x1C95 JUMP JUMPDEST PUSH2 0x6C6 JUMP JUMPDEST PUSH1 0x40 MLOAD PUSH2 0x2D1 SWAP2 SWAP1 PUSH2 0x216F JUMP JUMPDEST PUSH1 0x40 MLOAD DUP1 SWAP2 SUB SWAP1 RETURN JUMPDEST CALLVALUE DUP1 ISZERO PUSH2 0x2E6 JUMPI PUSH1 0x0 DUP1 REVERT JUMPDEST POP PUSH2 0x301 PUSH1 0x4 DUP1 CALLDATASIZE SUB DUP2 ADD SWAP1 PUSH2 0x2FC SWAP2 SWAP1 PUSH2 0x1B5E JUMP JUMPDEST PUSH2 0x7E2 JUMP JUMPDEST PUSH1 0x40 MLOAD PUSH2 0x30E SWAP2 SWAP1 PUSH2 0x211D JUMP JUMPDEST PUSH1 0x40 MLOAD DUP1 SWAP2 SUB SWAP1 RETURN JUMPDEST CALLVALUE DUP1 ISZERO PUSH2 0x323 JUMPI PUSH1 0x0 DUP1 REVERT JUMPDEST POP PUSH2 0x32C PUSH2 0x822 JUMP JUMPDEST STOP JUMPDEST CALLVALUE DUP1 ISZERO PUSH2 0x33A JUMPI PUSH1 0x0 DUP1 REVERT JUMPDEST POP PUSH2 0x343 PUSH2 0x8AA JUMP JUMPDEST STOP JUMPDEST CALLVALUE DUP1 ISZERO PUSH2 0x351 JUMPI PUSH1 0x0 DUP1 REVERT JUMPDEST POP PUSH2 0x35A PUSH2 0x943 JUMP JUMPDEST PUSH1 0x40 MLOAD PUSH2 0x367 SWAP2 SWAP1 PUSH2 0x211D JUMP JUMPDEST PUSH1 0x40 MLOAD DUP1 SWAP2 SUB SWAP1 RETURN JUMPDEST CALLVALUE DUP1 ISZERO PUSH2 0x37C JUMPI PUSH1 0x0 DUP1 REVERT JUMPDEST POP PUSH2 0x397 PUSH1 0x4 DUP1 CALLDATASIZE SUB DUP2 ADD SWAP1 PUSH2 0x392 SWAP2 SWAP1 PUSH2 0x1B5E JUMP JUMPDEST PUSH2 0x96C JUMP JUMPDEST PUSH1 0x40 MLOAD PUSH2 0x3A4 SWAP2 SWAP1 PUSH2 0x2280 JUMP JUMPDEST PUSH1 0x40 MLOAD DUP1 SWAP2 SUB SWAP1 RETURN JUMPDEST CALLVALUE DUP1 ISZERO PUSH2 0x3B9 JUMPI PUSH1 0x0 DUP1 REVERT JUMPDEST POP PUSH2 0x3D4 PUSH1 0x4 DUP1 CALLDATASIZE SUB DUP2 ADD SWAP1 PUSH2 0x3CF SWAP2 SWAP1 PUSH2 0x1B5E JUMP JUMPDEST PUSH2 0xA14 JUMP JUMPDEST PUSH1 0x40 MLOAD PUSH2 0x3E1 SWAP2 SWAP1 PUSH2 0x216F JUMP JUMPDEST PUSH1 0x40 MLOAD DUP1 SWAP2 SUB SWAP1 RETURN JUMPDEST CALLVALUE DUP1 ISZERO PUSH2 0x3F6 JUMPI PUSH1 0x0 DUP1 REVERT JUMPDEST POP PUSH2 0x3FF PUSH2 0xA34 JUMP JUMPDEST PUSH1 0x40 MLOAD PUSH2 0x40C SWAP2 SWAP1 PUSH2 0x2382 JUMP JUMPDEST PUSH1 0x40 MLOAD DUP1 SWAP2 SUB SWAP1 RETURN JUMPDEST CALLVALUE DUP1 ISZERO PUSH2 0x421 JUMPI PUSH1 0x0 DUP1 REVERT JUMPDEST POP PUSH2 0x43C PUSH1 0x4 DUP1 CALLDATASIZE SUB DUP2 ADD SWAP1 PUSH2 0x437 SWAP2 SWAP1 PUSH2 0x1B5E JUMP JUMPDEST PUSH2 0xA58 JUMP JUMPDEST PUSH1 0x40 MLOAD PUSH2 0x449 SWAP2 SWAP1 PUSH2 0x216F JUMP JUMPDEST PUSH1 0x40 MLOAD DUP1 SWAP2 SUB SWAP1 RETURN JUMPDEST CALLVALUE DUP1 ISZERO PUSH2 0x45E JUMPI PUSH1 0x0 DUP1 REVERT JUMPDEST POP PUSH2 0x479 PUSH1 0x4 DUP1 CALLDATASIZE SUB DUP2 ADD SWAP1 PUSH2 0x474 SWAP2 SWAP1 PUSH2 0x1B5E JUMP JUMPDEST PUSH2 0xA85 JUMP JUMPDEST PUSH1 0x40 MLOAD PUSH2 0x486 SWAP2 SWAP1 PUSH2 0x216F JUMP JUMPDEST PUSH1 0x40 MLOAD DUP1 SWAP2 SUB SWAP1 RETURN JUMPDEST CALLVALUE DUP1 ISZERO PUSH2 0x49B JUMPI PUSH1 0x0 DUP1 REVERT JUMPDEST POP PUSH2 0x4B6 PUSH1 0x4 DUP1 CALLDATASIZE SUB DUP2 ADD SWAP1 PUSH2 0x4B1 SWAP2 SWAP1 PUSH2 0x1B5E JUMP JUMPDEST PUSH2 0xABE JUMP JUMPDEST PUSH1 0x40 MLOAD PUSH2 0x4C3 SWAP2 SWAP1 PUSH2 0x216F JUMP JUMPDEST PUSH1 0x40 MLOAD DUP1 SWAP2 SUB SWAP1 RETURN JUMPDEST CALLVALUE DUP1 ISZERO PUSH2 0x4D8 JUMPI PUSH1 0x0 DUP1 REVERT JUMPDEST POP PUSH2 0x4F3 PUSH1 0x4 DUP1 CALLDATASIZE SUB DUP2 ADD SWAP1 PUSH2 0x4EE SWAP2 SWAP1 PUSH2 0x1B5E JUMP JUMPDEST PUSH2 0xAE8 JUMP JUMPDEST PUSH1 0x40 MLOAD PUSH2 0x500 SWAP2 SWAP1 PUSH2 0x2382 JUMP JUMPDEST PUSH1 0x40 MLOAD DUP1 SWAP2 SUB SWAP1 RETURN JUMPDEST CALLVALUE DUP1 ISZERO PUSH2 0x515 JUMPI PUSH1 0x0 DUP1 REVERT JUMPDEST POP PUSH2 0x530 PUSH1 0x4 DUP1 CALLDATASIZE SUB DUP2 ADD SWAP1 PUSH2 0x52B SWAP2 SWAP1 PUSH2 0x1B04 JUMP JUMPDEST PUSH2 0xB08 JUMP JUMPDEST STOP JUMPDEST PUSH2 0x54C PUSH1 0x4 DUP1 CALLDATASIZE SUB DUP2 ADD SWAP1 PUSH2 0x547 SWAP2 SWAP1 PUSH2 0x1C95 JUMP JUMPDEST PUSH2 0xC00 JUMP JUMPDEST PUSH1 0x40 MLOAD PUSH2 0x559 SWAP2 SWAP1 PUSH2 0x216F JUMP JUMPDEST PUSH1 0x40 MLOAD DUP1 SWAP2 SUB SWAP1 RETURN JUMPDEST CALLVALUE DUP1 ISZERO PUSH2 0x56E JUMPI PUSH1 0x0 DUP1 REVERT JUMPDEST POP PUSH2 0x589 PUSH1 0x4 DUP1 CALLDATASIZE SUB DUP2 ADD SWAP1 PUSH2 0x584 SWAP2 SWAP1 PUSH2 0x1B5E JUMP JUMPDEST PUSH2 0xD70 JUMP JUMPDEST PUSH1 0x40 MLOAD PUSH2 0x5A0 SWAP12 SWAP11 SWAP10 SWAP9 SWAP8 SWAP7 SWAP6 SWAP5 SWAP4 SWAP3 SWAP2 SWAP1 PUSH2 0x21CE JUMP JUMPDEST PUSH1 0x40 MLOAD DUP1 SWAP2 SUB SWAP1 RETURN JUMPDEST PUSH1 0x0 PUSH2 0x5B4 DUP3 PUSH2 0xABE JUMP JUMPDEST DUP1 PUSH2 0x5C4 JUMPI POP PUSH2 0x5C3 DUP3 PUSH2 0x5CB JUMP JUMPDEST JUMPDEST SWAP1 POP SWAP2 SWAP1 POP JUMP JUMPDEST PUSH1 0x0 DUP1 PUSH2 0x5D7 DUP4 PUSH2 0x686 JUMP JUMPDEST EQ ISZERO DUP1 ISZERO PUSH2 0x5ED JUMPI POP PUSH2 0x5E9 DUP3 PUSH2 0x686 JUMP JUMPDEST NUMBER LT ISZERO JUMPDEST SWAP1 POP SWAP2 SWAP1 POP JUMP JUMPDEST PUSH1 0x0 DUP1 ADDRESS SWAP1 POP PUSH1 0x0 DUP2 DUP12 DUP12 DUP12 DUP12 DUP12 DUP12 DUP12 DUP12 PUSH1 0x40 MLOAD PUSH1 0x20 ADD PUSH2 0x61D SWAP10 SWAP9 SWAP8 SWAP7 SWAP6 SWAP5 SWAP4 SWAP3 SWAP2 SWAP1 PUSH2 0x2086 JUMP JUMPDEST PUSH1 0x40 MLOAD PUSH1 0x20 DUP2 DUP4 SUB SUB DUP2 MSTORE SWAP1 PUSH1 0x40 MSTORE DUP1 MLOAD SWAP1 PUSH1 0x20 ADD KECCAK256 SWAP1 POP DUP1 SWAP3 POP POP POP SWAP9 SWAP8 POP POP POP POP POP POP POP POP JUMP JUMPDEST PUSH1 0x0 PUSH1 0x2 PUSH1 0x0 DUP4 DUP2 MSTORE PUSH1 0x20 ADD SWAP1 DUP2 MSTORE PUSH1 0x20 ADD PUSH1 0x0 KECCAK256 PUSH1 0x8 ADD PUSH1 0x0 SWAP1 SLOAD SWAP1 PUSH2 0x100 EXP SWAP1 DIV PUSH20 0xFFFFFFFFFFFFFFFFFFFFFFFFFFFFFFFFFFFFFFFF AND SWAP1 POP SWAP2 SWAP1 POP JUMP JUMPDEST PUSH1 0x0 PUSH1 0x2 PUSH1 0x0 DUP4 DUP2 MSTORE PUSH1 0x20 ADD SWAP1 DUP2 MSTORE PUSH1 0x20 ADD PUSH1 0x0 KECCAK256 PUSH1 0xB ADD SLOAD SWAP1 POP SWAP2 SWAP1 POP JUMP JUMPDEST PUSH1 0x0 PUSH1 0x2 PUSH1 0x0 DUP4 DUP2 MSTORE PUSH1 0x20 ADD SWAP1 DUP2 MSTORE PUSH1 0x20 ADD PUSH1 0x0 KECCAK256 PUSH1 0xA ADD SLOAD SWAP1 POP SWAP2 SWAP1 POP JUMP JUMPDEST PUSH1 0x0 DUP1 CALLER SWAP1 POP PUSH1 0x0 PUSH2 0x6DE DUP13 DUP13 DUP13 DUP13 DUP13 DUP13 DUP13 DUP13 PUSH2 0x5F4 JUMP JUMPDEST SWAP1 POP PUSH1 0x4 PUSH1 0x0 SWAP1 SLOAD SWAP1 PUSH2 0x100 EXP SWAP1 DIV PUSH1 0xFF AND ISZERO PUSH2 0x6FA JUMPI PUSH1 0x0 DUP1 REVERT JUMPDEST DUP4 DUP2 EQ PUSH2 0x706 JUMPI PUSH1 0x0 DUP1 REVERT JUMPDEST DUP2 PUSH20 0xFFFFFFFFFFFFFFFFFFFFFFFFFFFFFFFFFFFFFFFF AND DUP9 PUSH20 0xFFFFFFFFFFFFFFFFFFFFFFFFFFFFFFFFFFFFFFFF AND EQ PUSH2 0x73E JUMPI PUSH1 0x0 DUP1 REVERT JUMPDEST PUSH1 0x0 ISZERO ISZERO PUSH2 0x74B DUP3 PUSH2 0xA58 JUMP JUMPDEST ISZERO ISZERO EQ PUSH2 0x757 JUMPI PUSH1 0x0 DUP1 REVERT JUMPDEST PUSH1 0x0 ISZERO ISZERO PUSH2 0x764 DUP3 PUSH2 0xABE JUMP JUMPDEST ISZERO ISZERO EQ PUSH2 0x770 JUMPI PUSH1 0x0 DUP1 REVERT JUMPDEST PUSH1 0x1 PUSH1 0x3 PUSH1 0x0 DUP4 DUP2 MSTORE PUSH1 0x20 ADD SWAP1 DUP2 MSTORE PUSH1 0x20 ADD PUSH1 0x0 KECCAK256 PUSH1 0x0 PUSH2 0x100 EXP DUP2 SLOAD DUP2 PUSH1 0xFF MUL NOT AND SWAP1 DUP4 ISZERO ISZERO MUL OR SWAP1 SSTORE POP PUSH32 0x6E6F742C115DBB4DE54708B6C7D1B56F64833C8A15A486BA956575450E011462 DUP2 PUSH1 0x40 MLOAD PUSH2 0x7CB SWAP2 SWAP1 PUSH2 0x218A JUMP JUMPDEST PUSH1 0x40 MLOAD DUP1 SWAP2 SUB SWAP1 LOG1 POP POP SWAP10 SWAP9 POP POP POP POP POP POP POP POP POP JUMP JUMPDEST PUSH1 0x0 PUSH1 0x2 PUSH1 0x0 DUP4 DUP2 MSTORE PUSH1 0x20 ADD SWAP1 DUP2 MSTORE PUSH1 0x20 ADD PUSH1 0x0 KECCAK256 PUSH1 0x3 ADD PUSH1 0x1 SWAP1 SLOAD SWAP1 PUSH2 0x100 EXP SWAP1 DIV PUSH20 0xFFFFFFFFFFFFFFFFFFFFFFFFFFFFFFFFFFFFFFFF AND SWAP1 POP SWAP2 SWAP1 POP JUMP JUMPDEST PUSH2 0x82A PUSH2 0xEBF JUMP JUMPDEST PUSH20 0xFFFFFFFFFFFFFFFFFFFFFFFFFFFFFFFFFFFFFFFF AND PUSH2 0x848 PUSH2 0x943 JUMP JUMPDEST PUSH20 0xFFFFFFFFFFFFFFFFFFFFFFFFFFFFFFFFFFFFFFFF AND EQ PUSH2 0x89E JUMPI PUSH1 0x40 MLOAD PUSH32 0x8C379A000000000000000000000000000000000000000000000000000000000 DUP2 MSTORE PUSH1 0x4 ADD PUSH2 0x895 SWAP1 PUSH2 0x2322 JUMP JUMPDEST PUSH1 0x40 MLOAD DUP1 SWAP2 SUB SWAP1 REVERT JUMPDEST PUSH2 0x8A8 PUSH1 0x0 PUSH2 0xEC7 JUMP JUMPDEST JUMP JUMPDEST PUSH2 0x8B2 PUSH2 0xEBF JUMP JUMPDEST PUSH20 0xFFFFFFFFFFFFFFFFFFFFFFFFFFFFFFFFFFFFFFFF AND PUSH2 0x8D0 PUSH2 0x943 JUMP JUMPDEST PUSH20 0xFFFFFFFFFFFFFFFFFFFFFFFFFFFFFFFFFFFFFFFF AND EQ PUSH2 0x926 JUMPI PUSH1 0x40 MLOAD PUSH32 0x8C379A000000000000000000000000000000000000000000000000000000000 DUP2 MSTORE PUSH1 0x4 ADD PUSH2 0x91D SWAP1 PUSH2 0x2322 JUMP JUMPDEST PUSH1 0x40 MLOAD DUP1 SWAP2 SUB SWAP1 REVERT JUMPDEST PUSH1 0x1 PUSH1 0x4 PUSH1 0x0 PUSH2 0x100 EXP DUP2 SLOAD DUP2 PUSH1 0xFF MUL NOT AND SWAP1 DUP4 ISZERO ISZERO MUL OR SWAP1 SSTORE POP JUMP JUMPDEST PUSH1 0x0 DUP1 PUSH1 0x0 SWAP1 SLOAD SWAP1 PUSH2 0x100 EXP SWAP1 DIV PUSH20 0xFFFFFFFFFFFFFFFFFFFFFFFFFFFFFFFFFFFFFFFF AND SWAP1 POP SWAP1 JUMP JUMPDEST PUSH1 0x60 PUSH1 0x2 PUSH1 0x0 DUP4 DUP2 MSTORE PUSH1 0x20 ADD SWAP1 DUP2 MSTORE PUSH1 0x20 ADD PUSH1 0x0 KECCAK256 PUSH1 0x1 ADD DUP1 SLOAD PUSH2 0x98F SWAP1 PUSH2 0x2681 JUMP JUMPDEST DUP1 PUSH1 0x1F ADD PUSH1 0x20 DUP1 SWAP2 DIV MUL PUSH1 0x20 ADD PUSH1 0x40 MLOAD SWAP1 DUP2 ADD PUSH1 0x40 MSTORE DUP1 SWAP3 SWAP2 SWAP1 DUP2 DUP2 MSTORE PUSH1 0x20 ADD DUP3 DUP1 SLOAD PUSH2 0x9BB SWAP1 PUSH2 0x2681 JUMP JUMPDEST DUP1 ISZERO PUSH2 0xA08 JUMPI DUP1 PUSH1 0x1F LT PUSH2 0x9DD JUMPI PUSH2 0x100 DUP1 DUP4 SLOAD DIV MUL DUP4 MSTORE SWAP2 PUSH1 0x20 ADD SWAP2 PUSH2 0xA08 JUMP JUMPDEST DUP3 ADD SWAP2 SWAP1 PUSH1 0x0 MSTORE PUSH1 0x20 PUSH1 0x0 KECCAK256 SWAP1 JUMPDEST DUP2 SLOAD DUP2 MSTORE SWAP1 PUSH1 0x1 ADD SWAP1 PUSH1 0x20 ADD DUP1 DUP4 GT PUSH2 0x9EB JUMPI DUP3 SWAP1 SUB PUSH1 0x1F AND DUP3 ADD SWAP2 JUMPDEST POP POP POP POP POP SWAP1 POP SWAP2 SWAP1 POP JUMP JUMPDEST PUSH1 0x3 PUSH1 0x20 MSTORE DUP1 PUSH1 0x0 MSTORE PUSH1 0x40 PUSH1 0x0 KECCAK256 PUSH1 0x0 SWAP2 POP SLOAD SWAP1 PUSH2 0x100 EXP SWAP1 DIV PUSH1 0xFF AND DUP2 JUMP JUMPDEST PUSH32 0x0 DUP2 JUMP JUMPDEST PUSH1 0x0 PUSH1 0x2 PUSH1 0x0 DUP4 DUP2 MSTORE PUSH1 0x20 ADD SWAP1 DUP2 MSTORE PUSH1 0x20 ADD PUSH1 0x0 KECCAK256 PUSH1 0x3 ADD PUSH1 0x0 SWAP1 SLOAD SWAP1 PUSH2 0x100 EXP SWAP1 DIV PUSH1 0xFF AND SWAP1 POP SWAP2 SWAP1 POP JUMP JUMPDEST PUSH1 0x0 PUSH1 0x2 PUSH1 0x0 DUP4 DUP2 MSTORE PUSH1 0x20 ADD SWAP1 DUP2 MSTORE PUSH1 0x20 ADD PUSH1 0x0 KECCAK256 PUSH1 0x4 ADD SLOAD PUSH1 0x2 PUSH1 0x0 DUP5 DUP2 MSTORE PUSH1 0x20 ADD SWAP1 DUP2 MSTORE PUSH1 0x20 ADD PUSH1 0x0 KECCAK256 PUSH1 0x9 ADD SLOAD LT ISZERO SWAP1 POP SWAP2 SWAP1 POP JUMP JUMPDEST PUSH1 0x0 PUSH1 0x3 PUSH1 0x0 DUP4 DUP2 MSTORE PUSH1 0x20 ADD SWAP1 DUP2 MSTORE PUSH1 0x20 ADD PUSH1 0x0 KECCAK256 PUSH1 0x0 SWAP1 SLOAD SWAP1 PUSH2 0x100 EXP SWAP1 DIV PUSH1 0xFF AND SWAP1 POP SWAP2 SWAP1 POP JUMP JUMPDEST PUSH1 0x0 PUSH1 0x2 PUSH1 0x0 DUP4 DUP2 MSTORE PUSH1 0x20 ADD SWAP1 DUP2 MSTORE PUSH1 0x20 ADD PUSH1 0x0 KECCAK256 PUSH1 0x9 ADD SLOAD SWAP1 POP SWAP2 SWAP1 POP JUMP JUMPDEST PUSH2 0xB10 PUSH2 0xEBF JUMP JUMPDEST PUSH20 0xFFFFFFFFFFFFFFFFFFFFFFFFFFFFFFFFFFFFFFFF AND PUSH2 0xB2E PUSH2 0x943 JUMP JUMPDEST PUSH20 0xFFFFFFFFFFFFFFFFFFFFFFFFFFFFFFFFFFFFFFFF AND EQ PUSH2 0xB84 JUMPI PUSH1 0x40 MLOAD PUSH32 0x8C379A000000000000000000000000000000000000000000000000000000000 DUP2 MSTORE PUSH1 0x4 ADD PUSH2 0xB7B SWAP1 PUSH2 0x2322 JUMP JUMPDEST PUSH1 0x40 MLOAD DUP1 SWAP2 SUB SWAP1 REVERT JUMPDEST PUSH1 0x0 PUSH20 0xFFFFFFFFFFFFFFFFFFFFFFFFFFFFFFFFFFFFFFFF AND DUP2 PUSH20 0xFFFFFFFFFFFFFFFFFFFFFFFFFFFFFFFFFFFFFFFF AND EQ ISZERO PUSH2 0xBF4 JUMPI PUSH1 0x40 MLOAD PUSH32 0x8C379A000000000000000000000000000000000000000000000000000000000 DUP2 MSTORE PUSH1 0x4 ADD PUSH2 0xBEB SWAP1 PUSH2 0x22C2 JUMP JUMPDEST PUSH1 0x40 MLOAD DUP1 SWAP2 SUB SWAP1 REVERT JUMPDEST PUSH2 0xBFD DUP2 PUSH2 0xEC7 JUMP JUMPDEST POP JUMP JUMPDEST PUSH1 0x0 PUSH1 0x2 PUSH1 0x1 SLOAD EQ ISZERO PUSH2 0xC48 JUMPI PUSH1 0x40 MLOAD PUSH32 0x8C379A000000000000000000000000000000000000000000000000000000000 DUP2 MSTORE PUSH1 0x4 ADD PUSH2 0xC3F SWAP1 PUSH2 0x2362 JUMP JUMPDEST PUSH1 0x40 MLOAD DUP1 SWAP2 SUB SWAP1 REVERT JUMPDEST PUSH1 0x2 PUSH1 0x1 DUP2 SWAP1 SSTORE POP PUSH32 0x0 PUSH20 0xFFFFFFFFFFFFFFFFFFFFFFFFFFFFFFFFFFFFFFFF AND DUP9 PUSH20 0xFFFFFFFFFFFFFFFFFFFFFFFFFFFFFFFFFFFFFFFF AND EQ ISZERO PUSH2 0xCEB JUMPI DUP7 CALLVALUE EQ PUSH2 0xCE6 JUMPI PUSH1 0x40 MLOAD PUSH32 0x8C379A000000000000000000000000000000000000000000000000000000000 DUP2 MSTORE PUSH1 0x4 ADD PUSH2 0xCDD SWAP1 PUSH2 0x22A2 JUMP JUMPDEST PUSH1 0x40 MLOAD DUP1 SWAP2 SUB SWAP1 REVERT JUMPDEST PUSH2 0xD2F JUMP JUMPDEST PUSH1 0x0 CALLVALUE EQ PUSH2 0xD2E JUMPI PUSH1 0x40 MLOAD PUSH32 0x8C379A000000000000000000000000000000000000000000000000000000000 DUP2 MSTORE PUSH1 0x4 ADD PUSH2 0xD25 SWAP1 PUSH2 0x22E2 JUMP JUMPDEST PUSH1 0x40 MLOAD DUP1 SWAP2 SUB SWAP1 REVERT JUMPDEST JUMPDEST PUSH1 0x0 PUSH2 0xD42 DUP12 DUP12 DUP12 DUP12 DUP12 DUP12 DUP12 DUP12 DUP12 PUSH2 0xF8B JUMP JUMPDEST SWAP1 POP DUP3 DUP2 EQ PUSH2 0xD50 JUMPI PUSH1 0x0 DUP1 REVERT JUMPDEST PUSH2 0xD59 DUP2 PUSH2 0x1284 JUMP JUMPDEST SWAP2 POP POP PUSH1 0x1 DUP1 DUP2 SWAP1 SSTORE POP SWAP10 SWAP9 POP POP POP POP POP POP POP POP POP JUMP JUMPDEST PUSH1 0x2 PUSH1 0x20 MSTORE DUP1 PUSH1 0x0 MSTORE PUSH1 0x40 PUSH1 0x0 KECCAK256 PUSH1 0x0 SWAP2 POP SWAP1 POP DUP1 PUSH1 0x0 ADD SLOAD SWAP1 DUP1 PUSH1 0x1 ADD DUP1 SLOAD PUSH2 0xD99 SWAP1 PUSH2 0x2681 JUMP JUMPDEST DUP1 PUSH1 0x1F ADD PUSH1 0x20 DUP1 SWAP2 DIV MUL PUSH1 0x20 ADD PUSH1 0x40 MLOAD SWAP1 DUP2 ADD PUSH1 0x40 MSTORE DUP1 SWAP3 SWAP2 SWAP1 DUP2 DUP2 MSTORE PUSH1 0x20 ADD DUP3 DUP1 SLOAD PUSH2 0xDC5 SWAP1 PUSH2 0x2681 JUMP JUMPDEST DUP1 ISZERO PUSH2 0xE12 JUMPI DUP1 PUSH1 0x1F LT PUSH2 0xDE7 JUMPI PUSH2 0x100 DUP1 DUP4 SLOAD DIV MUL DUP4 MSTORE SWAP2 PUSH1 0x20 ADD SWAP2 PUSH2 0xE12 JUMP JUMPDEST DUP3 ADD SWAP2 SWAP1 PUSH1 0x0 MSTORE PUSH1 0x20 PUSH1 0x0 KECCAK256 SWAP1 JUMPDEST DUP2 SLOAD DUP2 MSTORE SWAP1 PUSH1 0x1 ADD SWAP1 PUSH1 0x20 ADD DUP1 DUP4 GT PUSH2 0xDF5 JUMPI DUP3 SWAP1 SUB PUSH1 0x1F AND DUP3 ADD SWAP2 JUMPDEST POP POP POP POP POP SWAP1 DUP1 PUSH1 0x2 ADD SLOAD SWAP1 DUP1 PUSH1 0x3 ADD PUSH1 0x0 SWAP1 SLOAD SWAP1 PUSH2 0x100 EXP SWAP1 DIV PUSH1 0xFF AND SWAP1 DUP1 PUSH1 0x3 ADD PUSH1 0x1 SWAP1 SLOAD SWAP1 PUSH2 0x100 EXP SWAP1 DIV PUSH20 0xFFFFFFFFFFFFFFFFFFFFFFFFFFFFFFFFFFFFFFFF AND SWAP1 DUP1 PUSH1 0x4 ADD SLOAD SWAP1 DUP1 PUSH1 0x5 ADD PUSH1 0x0 SWAP1 SLOAD SWAP1 PUSH2 0x100 EXP SWAP1 DIV PUSH20 0xFFFFFFFFFFFFFFFFFFFFFFFFFFFFFFFFFFFFFFFF AND SWAP1 DUP1 PUSH1 0x8 ADD PUSH1 0x0 SWAP1 SLOAD SWAP1 PUSH2 0x100 EXP SWAP1 DIV PUSH20 0xFFFFFFFFFFFFFFFFFFFFFFFFFFFFFFFFFFFFFFFF AND SWAP1 DUP1 PUSH1 0x9 ADD SLOAD SWAP1 DUP1 PUSH1 0xA ADD SLOAD SWAP1 DUP1 PUSH1 0xB ADD SLOAD SWAP1 POP DUP12 JUMP JUMPDEST PUSH1 0x0 CALLER SWAP1 POP SWAP1 JUMP JUMPDEST PUSH1 0x0 DUP1 PUSH1 0x0 SWAP1 SLOAD SWAP1 PUSH2 0x100 EXP SWAP1 DIV PUSH20 0xFFFFFFFFFFFFFFFFFFFFFFFFFFFFFFFFFFFFFFFF AND SWAP1 POP DUP2 PUSH1 0x0 DUP1 PUSH2 0x100 EXP DUP2 SLOAD DUP2 PUSH20 0xFFFFFFFFFFFFFFFFFFFFFFFFFFFFFFFFFFFFFFFF MUL NOT AND SWAP1 DUP4 PUSH20 0xFFFFFFFFFFFFFFFFFFFFFFFFFFFFFFFFFFFFFFFF AND MUL OR SWAP1 SSTORE POP DUP2 PUSH20 0xFFFFFFFFFFFFFFFFFFFFFFFFFFFFFFFFFFFFFFFF AND DUP2 PUSH20 0xFFFFFFFFFFFFFFFFFFFFFFFFFFFFFFFFFFFFFFFF AND PUSH32 0x8BE0079C531659141344CD1FD0A4F28419497F9722A3DAAFE3B4186F6B6457E0 PUSH1 0x40 MLOAD PUSH1 0x40 MLOAD DUP1 SWAP2 SUB SWAP1 LOG3 POP POP JUMP JUMPDEST PUSH1 0x0 DUP1 PUSH2 0xF9E DUP12 DUP12 DUP12 DUP12 DUP12 DUP12 DUP12 DUP12 PUSH2 0x5F4 JUMP JUMPDEST SWAP1 POP PUSH1 0x4 PUSH1 0x0 SWAP1 SLOAD SWAP1 PUSH2 0x100 EXP SWAP1 DIV PUSH1 0xFF AND ISZERO PUSH2 0xFBA JUMPI PUSH1 0x0 DUP1 REVERT JUMPDEST DUP3 DUP2 EQ PUSH2 0xFC6 JUMPI PUSH1 0x0 DUP1 REVERT JUMPDEST PUSH1 0x0 DUP1 SHL PUSH1 0x2 PUSH1 0x0 DUP4 DUP2 MSTORE PUSH1 0x20 ADD SWAP1 DUP2 MSTORE PUSH1 0x20 ADD PUSH1 0x0 KECCAK256 PUSH1 0x0 ADD SLOAD EQ PUSH2 0xFEB JUMPI PUSH1 0x0 DUP1 REVERT JUMPDEST DUP5 MLOAD DUP7 MLOAD EQ PUSH2 0xFF9 JUMPI PUSH1 0x0 DUP1 REVERT JUMPDEST PUSH1 0x40 MLOAD DUP1 PUSH2 0x1A0 ADD PUSH1 0x40 MSTORE DUP1 DUP3 DUP2 MSTORE PUSH1 0x20 ADD DUP13 DUP2 MSTORE PUSH1 0x20 ADD DUP12 DUP2 MSTORE PUSH1 0x20 ADD PUSH1 0x1 ISZERO ISZERO DUP2 MSTORE PUSH1 0x20 ADD DUP11 PUSH20 0xFFFFFFFFFFFFFFFFFFFFFFFFFFFFFFFFFFFFFFFF AND DUP2 MSTORE PUSH1 0x20 ADD DUP10 DUP2 MSTORE PUSH1 0x20 ADD DUP9 PUSH20 0xFFFFFFFFFFFFFFFFFFFFFFFFFFFFFFFFFFFFFFFF AND DUP2 MSTORE PUSH1 0x20 ADD DUP8 DUP2 MSTORE PUSH1 0x20 ADD DUP7 DUP2 MSTORE PUSH1 0x20 ADD PUSH1 0x0 PUSH20 0xFFFFFFFFFFFFFFFFFFFFFFFFFFFFFFFFFFFFFFFF AND DUP2 MSTORE PUSH1 0x20 ADD PUSH1 0x0 DUP2 MSTORE PUSH1 0x20 ADD PUSH1 0x0 DUP2 MSTORE PUSH1 0x20 ADD DUP6 DUP2 MSTORE POP PUSH1 0x2 PUSH1 0x0 DUP4 DUP2 MSTORE PUSH1 0x20 ADD SWAP1 DUP2 MSTORE PUSH1 0x20 ADD PUSH1 0x0 KECCAK256 PUSH1 0x0 DUP3 ADD MLOAD DUP2 PUSH1 0x0 ADD SSTORE PUSH1 0x20 DUP3 ADD MLOAD DUP2 PUSH1 0x1 ADD SWAP1 DUP1 MLOAD SWAP1 PUSH1 0x20 ADD SWAP1 PUSH2 0x10D2 SWAP3 SWAP2 SWAP1 PUSH2 0x178A JUMP JUMPDEST POP PUSH1 0x40 DUP3 ADD MLOAD DUP2 PUSH1 0x2 ADD SSTORE PUSH1 0x60 DUP3 ADD MLOAD DUP2 PUSH1 0x3 ADD PUSH1 0x0 PUSH2 0x100 EXP DUP2 SLOAD DUP2 PUSH1 0xFF MUL NOT AND SWAP1 DUP4 ISZERO ISZERO MUL OR SWAP1 SSTORE POP PUSH1 0x80 DUP3 ADD MLOAD DUP2 PUSH1 0x3 ADD PUSH1 0x1 PUSH2 0x100 EXP DUP2 SLOAD DUP2 PUSH20 0xFFFFFFFFFFFFFFFFFFFFFFFFFFFFFFFFFFFFFFFF MUL NOT AND SWAP1 DUP4 PUSH20 0xFFFFFFFFFFFFFFFFFFFFFFFFFFFFFFFFFFFFFFFF AND MUL OR SWAP1 SSTORE POP PUSH1 0xA0 DUP3 ADD MLOAD DUP2 PUSH1 0x4 ADD SSTORE PUSH1 0xC0 DUP3 ADD MLOAD DUP2 PUSH1 0x5 ADD PUSH1 0x0 PUSH2 0x100 EXP DUP2 SLOAD DUP2 PUSH20 0xFFFFFFFFFFFFFFFFFFFFFFFFFFFFFFFFFFFFFFFF MUL NOT AND SWAP1 DUP4 PUSH20 0xFFFFFFFFFFFFFFFFFFFFFFFFFFFFFFFFFFFFFFFF AND MUL OR SWAP1 SSTORE POP PUSH1 0xE0 DUP3 ADD MLOAD DUP2 PUSH1 0x6 ADD SWAP1 DUP1 MLOAD SWAP1 PUSH1 0x20 ADD SWAP1 PUSH2 0x11B1 SWAP3 SWAP2 SWAP1 PUSH2 0x1810 JUMP JUMPDEST POP PUSH2 0x100 DUP3 ADD MLOAD DUP2 PUSH1 0x7 ADD SWAP1 DUP1 MLOAD SWAP1 PUSH1 0x20 ADD SWAP1 PUSH2 0x11CF SWAP3 SWAP2 SWAP1 PUSH2 0x189A JUMP JUMPDEST POP PUSH2 0x120 DUP3 ADD MLOAD DUP2 PUSH1 0x8 ADD PUSH1 0x0 PUSH2 0x100 EXP DUP2 SLOAD DUP2 PUSH20 0xFFFFFFFFFFFFFFFFFFFFFFFFFFFFFFFFFFFFFFFF MUL NOT AND SWAP1 DUP4 PUSH20 0xFFFFFFFFFFFFFFFFFFFFFFFFFFFFFFFFFFFFFFFF AND MUL OR SWAP1 SSTORE POP PUSH2 0x140 DUP3 ADD MLOAD DUP2 PUSH1 0x9 ADD SSTORE PUSH2 0x160 DUP3 ADD MLOAD DUP2 PUSH1 0xA ADD SSTORE PUSH2 0x180 DUP3 ADD MLOAD DUP2 PUSH1 0xB ADD SSTORE SWAP1 POP POP PUSH32 0xC7EF264B3F844CBB14C2236B9E9682CDB5827CB89858AD61F7D3E7DF566EC4C7 DUP2 PUSH1 0x40 MLOAD PUSH2 0x126B SWAP2 SWAP1 PUSH2 0x218A JUMP JUMPDEST PUSH1 0x40 MLOAD DUP1 SWAP2 SUB SWAP1 LOG1 DUP1 SWAP2 POP POP SWAP10 SWAP9 POP POP POP POP POP POP POP POP POP JUMP JUMPDEST PUSH1 0x0 DUP1 CALLER SWAP1 POP PUSH1 0x4 PUSH1 0x0 SWAP1 SLOAD SWAP1 PUSH2 0x100 EXP SWAP1 DIV PUSH1 0xFF AND ISZERO PUSH2 0x12A4 JUMPI PUSH1 0x0 DUP1 REVERT JUMPDEST DUP3 PUSH1 0x2 PUSH1 0x0 DUP6 DUP2 MSTORE PUSH1 0x20 ADD SWAP1 DUP2 MSTORE PUSH1 0x20 ADD PUSH1 0x0 KECCAK256 PUSH1 0x0 ADD SLOAD EQ PUSH2 0x12C6 JUMPI PUSH1 0x0 DUP1 REVERT JUMPDEST PUSH1 0x0 ISZERO ISZERO PUSH2 0x12D3 DUP5 PUSH2 0xA85 JUMP JUMPDEST ISZERO ISZERO EQ PUSH2 0x12DF JUMPI PUSH1 0x0 DUP1 REVERT JUMPDEST PUSH1 0x0 ISZERO ISZERO PUSH2 0x12EC DUP5 PUSH2 0x5CB JUMP JUMPDEST ISZERO ISZERO EQ PUSH2 0x12F8 JUMPI PUSH1 0x0 DUP1 REVERT JUMPDEST PUSH1 0x0 ISZERO ISZERO PUSH2 0x1305 DUP5 PUSH2 0xABE JUMP JUMPDEST ISZERO ISZERO EQ PUSH2 0x1311 JUMPI PUSH1 0x0 DUP1 REVERT JUMPDEST PUSH1 0x0 DUP1 JUMPDEST PUSH1 0x2 PUSH1 0x0 DUP7 DUP2 MSTORE PUSH1 0x20 ADD SWAP1 DUP2 MSTORE PUSH1 0x20 ADD PUSH1 0x0 KECCAK256 PUSH1 0x6 ADD DUP1 SLOAD SWAP1 POP DUP2 LT ISZERO PUSH2 0x148F JUMPI PUSH1 0x0 PUSH1 0x64 PUSH1 0x2 PUSH1 0x0 DUP9 DUP2 MSTORE PUSH1 0x20 ADD SWAP1 DUP2 MSTORE PUSH1 0x20 ADD PUSH1 0x0 KECCAK256 PUSH1 0x7 ADD DUP4 DUP2 SLOAD DUP2 LT PUSH2 0x1362 JUMPI PUSH2 0x1361 PUSH2 0x27E8 JUMP JUMPDEST JUMPDEST SWAP1 PUSH1 0x0 MSTORE PUSH1 0x20 PUSH1 0x0 KECCAK256 ADD SLOAD PUSH2 0x1377 SWAP2 SWAP1 PUSH2 0x252E JUMP JUMPDEST PUSH1 0x2 PUSH1 0x0 DUP9 DUP2 MSTORE PUSH1 0x20 ADD SWAP1 DUP2 MSTORE PUSH1 0x20 ADD PUSH1 0x0 KECCAK256 PUSH1 0x4 ADD SLOAD PUSH2 0x1398 SWAP2 SWAP1 PUSH2 0x255F JUMP JUMPDEST SWAP1 POP PUSH2 0x142E PUSH1 0x2 PUSH1 0x0 DUP9 DUP2 MSTORE PUSH1 0x20 ADD SWAP1 DUP2 MSTORE PUSH1 0x20 ADD PUSH1 0x0 KECCAK256 PUSH1 0x3 ADD PUSH1 0x1 SWAP1 SLOAD SWAP1 PUSH2 0x100 EXP SWAP1 DIV PUSH20 0xFFFFFFFFFFFFFFFFFFFFFFFFFFFFFFFFFFFFFFFF AND DUP6 PUSH1 0x2 PUSH1 0x0 DUP11 DUP2 MSTORE PUSH1 0x20 ADD SWAP1 DUP2 MSTORE PUSH1 0x20 ADD PUSH1 0x0 KECCAK256 PUSH1 0x6 ADD DUP6 DUP2 SLOAD DUP2 LT PUSH2 0x13FD JUMPI PUSH2 0x13FC PUSH2 0x27E8 JUMP JUMPDEST JUMPDEST SWAP1 PUSH1 0x0 MSTORE PUSH1 0x20 PUSH1 0x0 KECCAK256 ADD PUSH1 0x0 SWAP1 SLOAD SWAP1 PUSH2 0x100 EXP SWAP1 DIV PUSH20 0xFFFFFFFFFFFFFFFFFFFFFFFFFFFFFFFFFFFFFFFF AND DUP5 PUSH2 0x1653 JUMP JUMPDEST PUSH2 0x146D JUMPI PUSH1 0x40 MLOAD PUSH32 0x8C379A000000000000000000000000000000000000000000000000000000000 DUP2 MSTORE PUSH1 0x4 ADD PUSH2 0x1464 SWAP1 PUSH2 0x2342 JUMP JUMPDEST PUSH1 0x40 MLOAD DUP1 SWAP2 SUB SWAP1 REVERT JUMPDEST DUP1 DUP4 PUSH2 0x1479 SWAP2 SWAP1 PUSH2 0x24D8 JUMP JUMPDEST SWAP3 POP POP DUP1 DUP1 PUSH2 0x1487 SWAP1 PUSH2 0x26E4 JUMP JUMPDEST SWAP2 POP POP PUSH2 0x1315 JUMP JUMPDEST POP PUSH1 0x0 DUP2 PUSH1 0x2 PUSH1 0x0 DUP8 DUP2 MSTORE PUSH1 0x20 ADD SWAP1 DUP2 MSTORE PUSH1 0x20 ADD PUSH1 0x0 KECCAK256 PUSH1 0x4 ADD SLOAD PUSH2 0x14B4 SWAP2 SWAP1 PUSH2 0x25B9 JUMP JUMPDEST SWAP1 POP PUSH2 0x152E PUSH1 0x2 PUSH1 0x0 DUP8 DUP2 MSTORE PUSH1 0x20 ADD SWAP1 DUP2 MSTORE PUSH1 0x20 ADD PUSH1 0x0 KECCAK256 PUSH1 0x3 ADD PUSH1 0x1 SWAP1 SLOAD SWAP1 PUSH2 0x100 EXP SWAP1 DIV PUSH20 0xFFFFFFFFFFFFFFFFFFFFFFFFFFFFFFFFFFFFFFFF AND DUP5 PUSH1 0x2 PUSH1 0x0 DUP10 DUP2 MSTORE PUSH1 0x20 ADD SWAP1 DUP2 MSTORE PUSH1 0x20 ADD PUSH1 0x0 KECCAK256 PUSH1 0x5 ADD PUSH1 0x0 SWAP1 SLOAD SWAP1 PUSH2 0x100 EXP SWAP1 DIV PUSH20 0xFFFFFFFFFFFFFFFFFFFFFFFFFFFFFFFFFFFFFFFF AND DUP5 PUSH2 0x1653 JUMP JUMPDEST PUSH2 0x156D JUMPI PUSH1 0x40 MLOAD PUSH32 0x8C379A000000000000000000000000000000000000000000000000000000000 DUP2 MSTORE PUSH1 0x4 ADD PUSH2 0x1564 SWAP1 PUSH2 0x2302 JUMP JUMPDEST PUSH1 0x40 MLOAD DUP1 SWAP2 SUB SWAP1 REVERT JUMPDEST PUSH1 0x2 PUSH1 0x0 DUP7 DUP2 MSTORE PUSH1 0x20 ADD SWAP1 DUP2 MSTORE PUSH1 0x20 ADD PUSH1 0x0 KECCAK256 PUSH1 0x4 ADD SLOAD PUSH1 0x2 PUSH1 0x0 DUP8 DUP2 MSTORE PUSH1 0x20 ADD SWAP1 DUP2 MSTORE PUSH1 0x20 ADD PUSH1 0x0 KECCAK256 PUSH1 0x9 ADD DUP2 SWAP1 SSTORE POP DUP3 PUSH1 0x2 PUSH1 0x0 DUP8 DUP2 MSTORE PUSH1 0x20 ADD SWAP1 DUP2 MSTORE PUSH1 0x20 ADD PUSH1 0x0 KECCAK256 PUSH1 0x8 ADD PUSH1 0x0 PUSH2 0x100 EXP DUP2 SLOAD DUP2 PUSH20 0xFFFFFFFFFFFFFFFFFFFFFFFFFFFFFFFFFFFFFFFF MUL NOT AND SWAP1 DUP4 PUSH20 0xFFFFFFFFFFFFFFFFFFFFFFFFFFFFFFFFFFFFFFFF AND MUL OR SWAP1 SSTORE POP NUMBER PUSH1 0x2 PUSH1 0x0 DUP8 DUP2 MSTORE PUSH1 0x20 ADD SWAP1 DUP2 MSTORE PUSH1 0x20 ADD PUSH1 0x0 KECCAK256 PUSH1 0xA ADD DUP2 SWAP1 SSTORE POP PUSH32 0x8C312AFE1806EAA44098445E756760724A25F74268C8E3B29276B885713247D0 DUP6 DUP5 PUSH1 0x40 MLOAD PUSH2 0x163F SWAP3 SWAP2 SWAP1 PUSH2 0x21A5 JUMP JUMPDEST PUSH1 0x40 MLOAD DUP1 SWAP2 SUB SWAP1 LOG1 PUSH1 0x1 SWAP4 POP POP POP POP SWAP2 SWAP1 POP JUMP JUMPDEST PUSH1 0x0 PUSH32 0x0 PUSH20 0xFFFFFFFFFFFFFFFFFFFFFFFFFFFFFFFFFFFFFFFF AND DUP6 PUSH20 0xFFFFFFFFFFFFFFFFFFFFFFFFFFFFFFFFFFFFFFFF AND EQ ISZERO PUSH2 0x16F1 JUMPI DUP3 PUSH20 0xFFFFFFFFFFFFFFFFFFFFFFFFFFFFFFFFFFFFFFFF AND PUSH2 0x8FC DUP4 SWAP1 DUP2 ISZERO MUL SWAP1 PUSH1 0x40 MLOAD PUSH1 0x0 PUSH1 0x40 MLOAD DUP1 DUP4 SUB DUP2 DUP6 DUP9 DUP9 CALL SWAP4 POP POP POP POP ISZERO DUP1 ISZERO PUSH2 0x16EF JUMPI RETURNDATASIZE PUSH1 0x0 DUP1 RETURNDATACOPY RETURNDATASIZE PUSH1 0x0 REVERT JUMPDEST POP JUMPDEST DUP5 PUSH20 0xFFFFFFFFFFFFFFFFFFFFFFFFFFFFFFFFFFFFFFFF AND PUSH4 0x23B872DD DUP6 DUP6 DUP6 PUSH1 0x40 MLOAD DUP5 PUSH4 0xFFFFFFFF AND PUSH1 0xE0 SHL DUP2 MSTORE PUSH1 0x4 ADD PUSH2 0x172E SWAP4 SWAP3 SWAP2 SWAP1 PUSH2 0x2138 JUMP JUMPDEST PUSH1 0x20 PUSH1 0x40 MLOAD DUP1 DUP4 SUB DUP2 PUSH1 0x0 DUP8 DUP1 EXTCODESIZE ISZERO DUP1 ISZERO PUSH2 0x1748 JUMPI PUSH1 0x0 DUP1 REVERT JUMPDEST POP GAS CALL ISZERO DUP1 ISZERO PUSH2 0x175C JUMPI RETURNDATASIZE PUSH1 0x0 DUP1 RETURNDATACOPY RETURNDATASIZE PUSH1 0x0 REVERT JUMPDEST POP POP POP POP PUSH1 0x40 MLOAD RETURNDATASIZE PUSH1 0x1F NOT PUSH1 0x1F DUP3 ADD AND DUP3 ADD DUP1 PUSH1 0x40 MSTORE POP DUP2 ADD SWAP1 PUSH2 0x1780 SWAP2 SWAP1 PUSH2 0x1B31 JUMP JUMPDEST SWAP1 POP SWAP5 SWAP4 POP POP POP POP JUMP JUMPDEST DUP3 DUP1 SLOAD PUSH2 0x1796 SWAP1 PUSH2 0x2681 JUMP JUMPDEST SWAP1 PUSH1 0x0 MSTORE PUSH1 0x20 PUSH1 0x0 KECCAK256 SWAP1 PUSH1 0x1F ADD PUSH1 0x20 SWAP1 DIV DUP2 ADD SWAP3 DUP3 PUSH2 0x17B8 JUMPI PUSH1 0x0 DUP6 SSTORE PUSH2 0x17FF JUMP JUMPDEST DUP3 PUSH1 0x1F LT PUSH2 0x17D1 JUMPI DUP1 MLOAD PUSH1 0xFF NOT AND DUP4 DUP1 ADD OR DUP6 SSTORE PUSH2 0x17FF JUMP JUMPDEST DUP3 DUP1 ADD PUSH1 0x1 ADD DUP6 SSTORE DUP3 ISZERO PUSH2 0x17FF JUMPI SWAP2 DUP3 ADD JUMPDEST DUP3 DUP2 GT ISZERO PUSH2 0x17FE JUMPI DUP3 MLOAD DUP3 SSTORE SWAP2 PUSH1 0x20 ADD SWAP2 SWAP1 PUSH1 0x1 ADD SWAP1 PUSH2 0x17E3 JUMP JUMPDEST JUMPDEST POP SWAP1 POP PUSH2 0x180C SWAP2 SWAP1 PUSH2 0x18E7 JUMP JUMPDEST POP SWAP1 JUMP JUMPDEST DUP3 DUP1 SLOAD DUP3 DUP3 SSTORE SWAP1 PUSH1 0x0 MSTORE PUSH1 0x20 PUSH1 0x0 KECCAK256 SWAP1 DUP2 ADD SWAP3 DUP3 ISZERO PUSH2 0x1889 JUMPI SWAP2 PUSH1 0x20 MUL DUP3 ADD JUMPDEST DUP3 DUP2 GT ISZERO PUSH2 0x1888 JUMPI DUP3 MLOAD DUP3 PUSH1 0x0 PUSH2 0x100 EXP DUP2 SLOAD DUP2 PUSH20 0xFFFFFFFFFFFFFFFFFFFFFFFFFFFFFFFFFFFFFFFF MUL NOT AND SWAP1 DUP4 PUSH20 0xFFFFFFFFFFFFFFFFFFFFFFFFFFFFFFFFFFFFFFFF AND MUL OR SWAP1 SSTORE POP SWAP2 PUSH1 0x20 ADD SWAP2 SWAP1 PUSH1 0x1 ADD SWAP1 PUSH2 0x1830 JUMP JUMPDEST JUMPDEST POP SWAP1 POP PUSH2 0x1896 SWAP2 SWAP1 PUSH2 0x18E7 JUMP JUMPDEST POP SWAP1 JUMP JUMPDEST DUP3 DUP1 SLOAD DUP3 DUP3 SSTORE SWAP1 PUSH1 0x0 MSTORE PUSH1 0x20 PUSH1 0x0 KECCAK256 SWAP1 DUP2 ADD SWAP3 DUP3 ISZERO PUSH2 0x18D6 JUMPI SWAP2 PUSH1 0x20 MUL DUP3 ADD JUMPDEST DUP3 DUP2 GT ISZERO PUSH2 0x18D5 JUMPI DUP3 MLOAD DUP3 SSTORE SWAP2 PUSH1 0x20 ADD SWAP2 SWAP1 PUSH1 0x1 ADD SWAP1 PUSH2 0x18BA JUMP JUMPDEST JUMPDEST POP SWAP1 POP PUSH2 0x18E3 SWAP2 SWAP1 PUSH2 0x18E7 JUMP JUMPDEST POP SWAP1 JUMP JUMPDEST JUMPDEST DUP1 DUP3 GT ISZERO PUSH2 0x1900 JUMPI PUSH1 0x0 DUP2 PUSH1 0x0 SWAP1 SSTORE POP PUSH1 0x1 ADD PUSH2 0x18E8 JUMP JUMPDEST POP SWAP1 JUMP JUMPDEST PUSH1 0x0 PUSH2 0x1917 PUSH2 0x1912 DUP5 PUSH2 0x23C2 JUMP JUMPDEST PUSH2 0x239D JUMP JUMPDEST SWAP1 POP DUP1 DUP4 DUP3 MSTORE PUSH1 0x20 DUP3 ADD SWAP1 POP DUP3 DUP6 PUSH1 0x20 DUP7 MUL DUP3 ADD GT ISZERO PUSH2 0x193A JUMPI PUSH2 0x1939 PUSH2 0x284B JUMP JUMPDEST JUMPDEST PUSH1 0x0 JUMPDEST DUP6 DUP2 LT ISZERO PUSH2 0x196A JUMPI DUP2 PUSH2 0x1950 DUP9 DUP3 PUSH2 0x1A26 JUMP JUMPDEST DUP5 MSTORE PUSH1 0x20 DUP5 ADD SWAP4 POP PUSH1 0x20 DUP4 ADD SWAP3 POP POP PUSH1 0x1 DUP2 ADD SWAP1 POP PUSH2 0x193D JUMP JUMPDEST POP POP POP SWAP4 SWAP3 POP POP POP JUMP JUMPDEST PUSH1 0x0 PUSH2 0x1987 PUSH2 0x1982 DUP5 PUSH2 0x23EE JUMP JUMPDEST PUSH2 0x239D JUMP JUMPDEST SWAP1 POP DUP1 DUP4 DUP3 MSTORE PUSH1 0x20 DUP3 ADD SWAP1 POP DUP3 DUP6 PUSH1 0x20 DUP7 MUL DUP3 ADD GT ISZERO PUSH2 0x19AA JUMPI PUSH2 0x19A9 PUSH2 0x284B JUMP JUMPDEST JUMPDEST PUSH1 0x0 JUMPDEST DUP6 DUP2 LT ISZERO PUSH2 0x19DA JUMPI DUP2 PUSH2 0x19C0 DUP9 DUP3 PUSH2 0x1AEF JUMP JUMPDEST DUP5 MSTORE PUSH1 0x20 DUP5 ADD SWAP4 POP PUSH1 0x20 DUP4 ADD SWAP3 POP POP PUSH1 0x1 DUP2 ADD SWAP1 POP PUSH2 0x19AD JUMP JUMPDEST POP POP POP SWAP4 SWAP3 POP POP POP JUMP JUMPDEST PUSH1 0x0 PUSH2 0x19F7 PUSH2 0x19F2 DUP5 PUSH2 0x241A JUMP JUMPDEST PUSH2 0x239D JUMP JUMPDEST SWAP1 POP DUP3 DUP2 MSTORE PUSH1 0x20 DUP2 ADD DUP5 DUP5 DUP5 ADD GT ISZERO PUSH2 0x1A13 JUMPI PUSH2 0x1A12 PUSH2 0x2850 JUMP JUMPDEST JUMPDEST PUSH2 0x1A1E DUP5 DUP3 DUP6 PUSH2 0x263F JUMP JUMPDEST POP SWAP4 SWAP3 POP POP POP JUMP JUMPDEST PUSH1 0x0 DUP2 CALLDATALOAD SWAP1 POP PUSH2 0x1A35 DUP2 PUSH2 0x2A0E JUMP JUMPDEST SWAP3 SWAP2 POP POP JUMP JUMPDEST PUSH1 0x0 DUP3 PUSH1 0x1F DUP4 ADD SLT PUSH2 0x1A50 JUMPI PUSH2 0x1A4F PUSH2 0x2846 JUMP JUMPDEST JUMPDEST DUP2 CALLDATALOAD PUSH2 0x1A60 DUP5 DUP3 PUSH1 0x20 DUP7 ADD PUSH2 0x1904 JUMP JUMPDEST SWAP2 POP POP SWAP3 SWAP2 POP POP JUMP JUMPDEST PUSH1 0x0 DUP3 PUSH1 0x1F DUP4 ADD SLT PUSH2 0x1A7E JUMPI PUSH2 0x1A7D PUSH2 0x2846 JUMP JUMPDEST JUMPDEST DUP2 CALLDATALOAD PUSH2 0x1A8E DUP5 DUP3 PUSH1 0x20 DUP7 ADD PUSH2 0x1974 JUMP JUMPDEST SWAP2 POP POP SWAP3 SWAP2 POP POP JUMP JUMPDEST PUSH1 0x0 DUP2 MLOAD SWAP1 POP PUSH2 0x1AA6 DUP2 PUSH2 0x2A25 JUMP JUMPDEST SWAP3 SWAP2 POP POP JUMP JUMPDEST PUSH1 0x0 DUP2 CALLDATALOAD SWAP1 POP PUSH2 0x1ABB DUP2 PUSH2 0x2A3C JUMP JUMPDEST SWAP3 SWAP2 POP POP JUMP JUMPDEST PUSH1 0x0 DUP3 PUSH1 0x1F DUP4 ADD SLT PUSH2 0x1AD6 JUMPI PUSH2 0x1AD5 PUSH2 0x2846 JUMP JUMPDEST JUMPDEST DUP2 CALLDATALOAD PUSH2 0x1AE6 DUP5 DUP3 PUSH1 0x20 DUP7 ADD PUSH2 0x19E4 JUMP JUMPDEST SWAP2 POP POP SWAP3 SWAP2 POP POP JUMP JUMPDEST PUSH1 0x0 DUP2 CALLDATALOAD SWAP1 POP PUSH2 0x1AFE DUP2 PUSH2 0x2A53 JUMP JUMPDEST SWAP3 SWAP2 POP POP JUMP JUMPDEST PUSH1 0x0 PUSH1 0x20 DUP3 DUP5 SUB SLT ISZERO PUSH2 0x1B1A JUMPI PUSH2 0x1B19 PUSH2 0x285A JUMP JUMPDEST JUMPDEST PUSH1 0x0 PUSH2 0x1B28 DUP5 DUP3 DUP6 ADD PUSH2 0x1A26 JUMP JUMPDEST SWAP2 POP POP SWAP3 SWAP2 POP POP JUMP JUMPDEST PUSH1 0x0 PUSH1 0x20 DUP3 DUP5 SUB SLT ISZERO PUSH2 0x1B47 JUMPI PUSH2 0x1B46 PUSH2 0x285A JUMP JUMPDEST JUMPDEST PUSH1 0x0 PUSH2 0x1B55 DUP5 DUP3 DUP6 ADD PUSH2 0x1A97 JUMP JUMPDEST SWAP2 POP POP SWAP3 SWAP2 POP POP JUMP JUMPDEST PUSH1 0x0 PUSH1 0x20 DUP3 DUP5 SUB SLT ISZERO PUSH2 0x1B74 JUMPI PUSH2 0x1B73 PUSH2 0x285A JUMP JUMPDEST JUMPDEST PUSH1 0x0 PUSH2 0x1B82 DUP5 DUP3 DUP6 ADD PUSH2 0x1AAC JUMP JUMPDEST SWAP2 POP POP SWAP3 SWAP2 POP POP JUMP JUMPDEST PUSH1 0x0 DUP1 PUSH1 0x0 DUP1 PUSH1 0x0 DUP1 PUSH1 0x0 DUP1 PUSH2 0x100 DUP10 DUP12 SUB SLT ISZERO PUSH2 0x1BAC JUMPI PUSH2 0x1BAB PUSH2 0x285A JUMP JUMPDEST JUMPDEST PUSH1 0x0 DUP10 ADD CALLDATALOAD PUSH8 0xFFFFFFFFFFFFFFFF DUP2 GT ISZERO PUSH2 0x1BCA JUMPI PUSH2 0x1BC9 PUSH2 0x2855 JUMP JUMPDEST JUMPDEST PUSH2 0x1BD6 DUP12 DUP3 DUP13 ADD PUSH2 0x1AC1 JUMP JUMPDEST SWAP9 POP POP PUSH1 0x20 PUSH2 0x1BE7 DUP12 DUP3 DUP13 ADD PUSH2 0x1AEF JUMP JUMPDEST SWAP8 POP POP PUSH1 0x40 PUSH2 0x1BF8 DUP12 DUP3 DUP13 ADD PUSH2 0x1A26 JUMP JUMPDEST SWAP7 POP POP PUSH1 0x60 PUSH2 0x1C09 DUP12 DUP3 DUP13 ADD PUSH2 0x1AEF JUMP JUMPDEST SWAP6 POP POP PUSH1 0x80 PUSH2 0x1C1A DUP12 DUP3 DUP13 ADD PUSH2 0x1A26 JUMP JUMPDEST SWAP5 POP POP PUSH1 0xA0 DUP10 ADD CALLDATALOAD PUSH8 0xFFFFFFFFFFFFFFFF DUP2 GT ISZERO PUSH2 0x1C3B JUMPI PUSH2 0x1C3A PUSH2 0x2855 JUMP JUMPDEST JUMPDEST PUSH2 0x1C47 DUP12 DUP3 DUP13 ADD PUSH2 0x1A3B JUMP JUMPDEST SWAP4 POP POP PUSH1 0xC0 DUP10 ADD CALLDATALOAD PUSH8 0xFFFFFFFFFFFFFFFF DUP2 GT ISZERO PUSH2 0x1C68 JUMPI PUSH2 0x1C67 PUSH2 0x2855 JUMP JUMPDEST JUMPDEST PUSH2 0x1C74 DUP12 DUP3 DUP13 ADD PUSH2 0x1A69 JUMP JUMPDEST SWAP3 POP POP PUSH1 0xE0 PUSH2 0x1C85 DUP12 DUP3 DUP13 ADD PUSH2 0x1AEF JUMP JUMPDEST SWAP2 POP POP SWAP3 SWAP6 SWAP9 POP SWAP3 SWAP6 SWAP9 SWAP1 SWAP4 SWAP7 POP JUMP JUMPDEST PUSH1 0x0 DUP1 PUSH1 0x0 DUP1 PUSH1 0x0 DUP1 PUSH1 0x0 DUP1 PUSH1 0x0 PUSH2 0x120 DUP11 DUP13 SUB SLT ISZERO PUSH2 0x1CB8 JUMPI PUSH2 0x1CB7 PUSH2 0x285A JUMP JUMPDEST JUMPDEST PUSH1 0x0 DUP11 ADD CALLDATALOAD PUSH8 0xFFFFFFFFFFFFFFFF DUP2 GT ISZERO PUSH2 0x1CD6 JUMPI PUSH2 0x1CD5 PUSH2 0x2855 JUMP JUMPDEST JUMPDEST PUSH2 0x1CE2 DUP13 DUP3 DUP14 ADD PUSH2 0x1AC1 JUMP JUMPDEST SWAP10 POP POP PUSH1 0x20 PUSH2 0x1CF3 DUP13 DUP3 DUP14 ADD PUSH2 0x1AEF JUMP JUMPDEST SWAP9 POP POP PUSH1 0x40 PUSH2 0x1D04 DUP13 DUP3 DUP14 ADD PUSH2 0x1A26 JUMP JUMPDEST SWAP8 POP POP PUSH1 0x60 PUSH2 0x1D15 DUP13 DUP3 DUP14 ADD PUSH2 0x1AEF JUMP JUMPDEST SWAP7 POP POP PUSH1 0x80 PUSH2 0x1D26 DUP13 DUP3 DUP14 ADD PUSH2 0x1A26 JUMP JUMPDEST SWAP6 POP POP PUSH1 0xA0 DUP11 ADD CALLDATALOAD PUSH8 0xFFFFFFFFFFFFFFFF DUP2 GT ISZERO PUSH2 0x1D47 JUMPI PUSH2 0x1D46 PUSH2 0x2855 JUMP JUMPDEST JUMPDEST PUSH2 0x1D53 DUP13 DUP3 DUP14 ADD PUSH2 0x1A3B JUMP JUMPDEST SWAP5 POP POP PUSH1 0xC0 DUP11 ADD CALLDATALOAD PUSH8 0xFFFFFFFFFFFFFFFF DUP2 GT ISZERO PUSH2 0x1D74 JUMPI PUSH2 0x1D73 PUSH2 0x2855 JUMP JUMPDEST JUMPDEST PUSH2 0x1D80 DUP13 DUP3 DUP14 ADD PUSH2 0x1A69 JUMP JUMPDEST SWAP4 POP POP PUSH1 0xE0 PUSH2 0x1D91 DUP13 DUP3 DUP14 ADD PUSH2 0x1AEF JUMP JUMPDEST SWAP3 POP POP PUSH2 0x100 PUSH2 0x1DA3 DUP13 DUP3 DUP14 ADD PUSH2 0x1AAC JUMP JUMPDEST SWAP2 POP POP SWAP3 SWAP6 SWAP9 POP SWAP3 SWAP6 SWAP9 POP SWAP3 SWAP6 SWAP9 JUMP JUMPDEST PUSH1 0x0 PUSH2 0x1DBF DUP4 DUP4 PUSH2 0x1DF2 JUMP JUMPDEST PUSH1 0x20 DUP4 ADD SWAP1 POP SWAP3 SWAP2 POP POP JUMP JUMPDEST PUSH1 0x0 PUSH2 0x1DD7 DUP4 DUP4 PUSH2 0x2060 JUMP JUMPDEST PUSH1 0x20 DUP4 ADD SWAP1 POP SWAP3 SWAP2 POP POP JUMP JUMPDEST PUSH2 0x1DEC DUP2 PUSH2 0x25ED JUMP JUMPDEST DUP3 MSTORE POP POP JUMP JUMPDEST PUSH2 0x1DFB DUP2 PUSH2 0x25ED JUMP JUMPDEST DUP3 MSTORE POP POP JUMP JUMPDEST PUSH2 0x1E12 PUSH2 0x1E0D DUP3 PUSH2 0x25ED JUMP JUMPDEST PUSH2 0x272D JUMP JUMPDEST DUP3 MSTORE POP POP JUMP JUMPDEST PUSH1 0x0 PUSH2 0x1E23 DUP3 PUSH2 0x246B JUMP JUMPDEST PUSH2 0x1E2D DUP2 DUP6 PUSH2 0x24A6 JUMP JUMPDEST SWAP4 POP PUSH2 0x1E38 DUP4 PUSH2 0x244B JUMP JUMPDEST DUP1 PUSH1 0x0 JUMPDEST DUP4 DUP2 LT ISZERO PUSH2 0x1E69 JUMPI DUP2 MLOAD PUSH2 0x1E50 DUP9 DUP3 PUSH2 0x1DB3 JUMP JUMPDEST SWAP8 POP PUSH2 0x1E5B DUP4 PUSH2 0x248C JUMP JUMPDEST SWAP3 POP POP PUSH1 0x1 DUP2 ADD SWAP1 POP PUSH2 0x1E3C JUMP JUMPDEST POP DUP6 SWAP4 POP POP POP POP SWAP3 SWAP2 POP POP JUMP JUMPDEST PUSH1 0x0 PUSH2 0x1E81 DUP3 PUSH2 0x2476 JUMP JUMPDEST PUSH2 0x1E8B DUP2 DUP6 PUSH2 0x24B1 JUMP JUMPDEST SWAP4 POP PUSH2 0x1E96 DUP4 PUSH2 0x245B JUMP JUMPDEST DUP1 PUSH1 0x0 JUMPDEST DUP4 DUP2 LT ISZERO PUSH2 0x1EC7 JUMPI DUP2 MLOAD PUSH2 0x1EAE DUP9 DUP3 PUSH2 0x1DCB JUMP JUMPDEST SWAP8 POP PUSH2 0x1EB9 DUP4 PUSH2 0x2499 JUMP JUMPDEST SWAP3 POP POP PUSH1 0x1 DUP2 ADD SWAP1 POP PUSH2 0x1E9A JUMP JUMPDEST POP DUP6 SWAP4 POP POP POP POP SWAP3 SWAP2 POP POP JUMP JUMPDEST PUSH2 0x1EDD DUP2 PUSH2 0x25FF JUMP JUMPDEST DUP3 MSTORE POP POP JUMP JUMPDEST PUSH2 0x1EEC DUP2 PUSH2 0x260B JUMP JUMPDEST DUP3 MSTORE POP POP JUMP JUMPDEST PUSH1 0x0 PUSH2 0x1EFD DUP3 PUSH2 0x2481 JUMP JUMPDEST PUSH2 0x1F07 DUP2 DUP6 PUSH2 0x24BC JUMP JUMPDEST SWAP4 POP PUSH2 0x1F17 DUP2 DUP6 PUSH1 0x20 DUP7 ADD PUSH2 0x264E JUMP JUMPDEST PUSH2 0x1F20 DUP2 PUSH2 0x285F JUMP JUMPDEST DUP5 ADD SWAP2 POP POP SWAP3 SWAP2 POP POP JUMP JUMPDEST PUSH1 0x0 PUSH2 0x1F36 DUP3 PUSH2 0x2481 JUMP JUMPDEST PUSH2 0x1F40 DUP2 DUP6 PUSH2 0x24CD JUMP JUMPDEST SWAP4 POP PUSH2 0x1F50 DUP2 DUP6 PUSH1 0x20 DUP7 ADD PUSH2 0x264E JUMP JUMPDEST DUP1 DUP5 ADD SWAP2 POP POP SWAP3 SWAP2 POP POP JUMP JUMPDEST PUSH1 0x0 PUSH2 0x1F69 PUSH1 0x26 DUP4 PUSH2 0x24BC JUMP JUMPDEST SWAP2 POP PUSH2 0x1F74 DUP3 PUSH2 0x287D JUMP JUMPDEST PUSH1 0x40 DUP3 ADD SWAP1 POP SWAP2 SWAP1 POP JUMP JUMPDEST PUSH1 0x0 PUSH2 0x1F8C PUSH1 0x26 DUP4 PUSH2 0x24BC JUMP JUMPDEST SWAP2 POP PUSH2 0x1F97 DUP3 PUSH2 0x28CC JUMP JUMPDEST PUSH1 0x40 DUP3 ADD SWAP1 POP SWAP2 SWAP1 POP JUMP JUMPDEST PUSH1 0x0 PUSH2 0x1FAF PUSH1 0x2A DUP4 PUSH2 0x24BC JUMP JUMPDEST SWAP2 POP PUSH2 0x1FBA DUP3 PUSH2 0x291B JUMP JUMPDEST PUSH1 0x40 DUP3 ADD SWAP1 POP SWAP2 SWAP1 POP JUMP JUMPDEST PUSH1 0x0 PUSH2 0x1FD2 PUSH1 0x19 DUP4 PUSH2 0x24BC JUMP JUMPDEST SWAP2 POP PUSH2 0x1FDD DUP3 PUSH2 0x296A JUMP JUMPDEST PUSH1 0x20 DUP3 ADD SWAP1 POP SWAP2 SWAP1 POP JUMP JUMPDEST PUSH1 0x0 PUSH2 0x1FF5 PUSH1 0x20 DUP4 PUSH2 0x24BC JUMP JUMPDEST SWAP2 POP PUSH2 0x2000 DUP3 PUSH2 0x2993 JUMP JUMPDEST PUSH1 0x20 DUP3 ADD SWAP1 POP SWAP2 SWAP1 POP JUMP JUMPDEST PUSH1 0x0 PUSH2 0x2018 PUSH1 0x1E DUP4 PUSH2 0x24BC JUMP JUMPDEST SWAP2 POP PUSH2 0x2023 DUP3 PUSH2 0x29BC JUMP JUMPDEST PUSH1 0x20 DUP3 ADD SWAP1 POP SWAP2 SWAP1 POP JUMP JUMPDEST PUSH1 0x0 PUSH2 0x203B PUSH1 0x1F DUP4 PUSH2 0x24BC JUMP JUMPDEST SWAP2 POP PUSH2 0x2046 DUP3 PUSH2 0x29E5 JUMP JUMPDEST PUSH1 0x20 DUP3 ADD SWAP1 POP SWAP2 SWAP1 POP JUMP JUMPDEST PUSH2 0x205A DUP2 PUSH2 0x2635 JUMP JUMPDEST DUP3 MSTORE POP POP JUMP JUMPDEST PUSH2 0x2069 DUP2 PUSH2 0x2635 JUMP JUMPDEST DUP3 MSTORE POP POP JUMP JUMPDEST PUSH2 0x2080 PUSH2 0x207B DUP3 PUSH2 0x2635 JUMP JUMPDEST PUSH2 0x2751 JUMP JUMPDEST DUP3 MSTORE POP POP JUMP JUMPDEST PUSH1 0x0 PUSH2 0x2092 DUP3 DUP13 PUSH2 0x1E01 JUMP JUMPDEST PUSH1 0x14 DUP3 ADD SWAP2 POP PUSH2 0x20A2 DUP3 DUP12 PUSH2 0x1F2B JUMP JUMPDEST SWAP2 POP PUSH2 0x20AE DUP3 DUP11 PUSH2 0x206F JUMP JUMPDEST PUSH1 0x20 DUP3 ADD SWAP2 POP PUSH2 0x20BE DUP3 DUP10 PUSH2 0x1E01 JUMP JUMPDEST PUSH1 0x14 DUP3 ADD SWAP2 POP PUSH2 0x20CE DUP3 DUP9 PUSH2 0x206F JUMP JUMPDEST PUSH1 0x20 DUP3 ADD SWAP2 POP PUSH2 0x20DE DUP3 DUP8 PUSH2 0x1E01 JUMP JUMPDEST PUSH1 0x14 DUP3 ADD SWAP2 POP PUSH2 0x20EE DUP3 DUP7 PUSH2 0x1E18 JUMP JUMPDEST SWAP2 POP PUSH2 0x20FA DUP3 DUP6 PUSH2 0x1E76 JUMP JUMPDEST SWAP2 POP PUSH2 0x2106 DUP3 DUP5 PUSH2 0x206F JUMP JUMPDEST PUSH1 0x20 DUP3 ADD SWAP2 POP DUP2 SWAP1 POP SWAP11 SWAP10 POP POP POP POP POP POP POP POP POP POP JUMP JUMPDEST PUSH1 0x0 PUSH1 0x20 DUP3 ADD SWAP1 POP PUSH2 0x2132 PUSH1 0x0 DUP4 ADD DUP5 PUSH2 0x1DE3 JUMP JUMPDEST SWAP3 SWAP2 POP POP JUMP JUMPDEST PUSH1 0x0 PUSH1 0x60 DUP3 ADD SWAP1 POP PUSH2 0x214D PUSH1 0x0 DUP4 ADD DUP7 PUSH2 0x1DE3 JUMP JUMPDEST PUSH2 0x215A PUSH1 0x20 DUP4 ADD DUP6 PUSH2 0x1DE3 JUMP JUMPDEST PUSH2 0x2167 PUSH1 0x40 DUP4 ADD DUP5 PUSH2 0x2051 JUMP JUMPDEST SWAP5 SWAP4 POP POP POP POP JUMP JUMPDEST PUSH1 0x0 PUSH1 0x20 DUP3 ADD SWAP1 POP PUSH2 0x2184 PUSH1 0x0 DUP4 ADD DUP5 PUSH2 0x1ED4 JUMP JUMPDEST SWAP3 SWAP2 POP POP JUMP JUMPDEST PUSH1 0x0 PUSH1 0x20 DUP3 ADD SWAP1 POP PUSH2 0x219F PUSH1 0x0 DUP4 ADD DUP5 PUSH2 0x1EE3 JUMP JUMPDEST SWAP3 SWAP2 POP POP JUMP JUMPDEST PUSH1 0x0 PUSH1 0x40 DUP3 ADD SWAP1 POP PUSH2 0x21BA PUSH1 0x0 DUP4 ADD DUP6 PUSH2 0x1EE3 JUMP JUMPDEST PUSH2 0x21C7 PUSH1 0x20 DUP4 ADD DUP5 PUSH2 0x1DE3 JUMP JUMPDEST SWAP4 SWAP3 POP POP POP JUMP JUMPDEST PUSH1 0x0 PUSH2 0x160 DUP3 ADD SWAP1 POP PUSH2 0x21E4 PUSH1 0x0 DUP4 ADD DUP15 PUSH2 0x1EE3 JUMP JUMPDEST DUP2 DUP2 SUB PUSH1 0x20 DUP4 ADD MSTORE PUSH2 0x21F6 DUP2 DUP14 PUSH2 0x1EF2 JUMP JUMPDEST SWAP1 POP PUSH2 0x2205 PUSH1 0x40 DUP4 ADD DUP13 PUSH2 0x2051 JUMP JUMPDEST PUSH2 0x2212 PUSH1 0x60 DUP4 ADD DUP12 PUSH2 0x1ED4 JUMP JUMPDEST PUSH2 0x221F PUSH1 0x80 DUP4 ADD DUP11 PUSH2 0x1DE3 JUMP JUMPDEST PUSH2 0x222C PUSH1 0xA0 DUP4 ADD DUP10 PUSH2 0x2051 JUMP JUMPDEST PUSH2 0x2239 PUSH1 0xC0 DUP4 ADD DUP9 PUSH2 0x1DE3 JUMP JUMPDEST PUSH2 0x2246 PUSH1 0xE0 DUP4 ADD DUP8 PUSH2 0x1DE3 JUMP JUMPDEST PUSH2 0x2254 PUSH2 0x100 DUP4 ADD DUP7 PUSH2 0x2051 JUMP JUMPDEST PUSH2 0x2262 PUSH2 0x120 DUP4 ADD DUP6 PUSH2 0x2051 JUMP JUMPDEST PUSH2 0x2270 PUSH2 0x140 DUP4 ADD DUP5 PUSH2 0x2051 JUMP JUMPDEST SWAP13 SWAP12 POP POP POP POP POP POP POP POP POP POP POP POP JUMP JUMPDEST PUSH1 0x0 PUSH1 0x20 DUP3 ADD SWAP1 POP DUP2 DUP2 SUB PUSH1 0x0 DUP4 ADD MSTORE PUSH2 0x229A DUP2 DUP5 PUSH2 0x1EF2 JUMP JUMPDEST SWAP1 POP SWAP3 SWAP2 POP POP JUMP JUMPDEST PUSH1 0x0 PUSH1 0x20 DUP3 ADD SWAP1 POP DUP2 DUP2 SUB PUSH1 0x0 DUP4 ADD MSTORE PUSH2 0x22BB DUP2 PUSH2 0x1F5C JUMP JUMPDEST SWAP1 POP SWAP2 SWAP1 POP JUMP JUMPDEST PUSH1 0x0 PUSH1 0x20 DUP3 ADD SWAP1 POP DUP2 DUP2 SUB PUSH1 0x0 DUP4 ADD MSTORE PUSH2 0x22DB DUP2 PUSH2 0x1F7F JUMP JUMPDEST SWAP1 POP SWAP2 SWAP1 POP JUMP JUMPDEST PUSH1 0x0 PUSH1 0x20 DUP3 ADD SWAP1 POP DUP2 DUP2 SUB PUSH1 0x0 DUP4 ADD MSTORE PUSH2 0x22FB DUP2 PUSH2 0x1FA2 JUMP JUMPDEST SWAP1 POP SWAP2 SWAP1 POP JUMP JUMPDEST PUSH1 0x0 PUSH1 0x20 DUP3 ADD SWAP1 POP DUP2 DUP2 SUB PUSH1 0x0 DUP4 ADD MSTORE PUSH2 0x231B DUP2 PUSH2 0x1FC5 JUMP JUMPDEST SWAP1 POP SWAP2 SWAP1 POP JUMP JUMPDEST PUSH1 0x0 PUSH1 0x20 DUP3 ADD SWAP1 POP DUP2 DUP2 SUB PUSH1 0x0 DUP4 ADD MSTORE PUSH2 0x233B DUP2 PUSH2 0x1FE8 JUMP JUMPDEST SWAP1 POP SWAP2 SWAP1 POP JUMP JUMPDEST PUSH1 0x0 PUSH1 0x20 DUP3 ADD SWAP1 POP DUP2 DUP2 SUB PUSH1 0x0 DUP4 ADD MSTORE PUSH2 0x235B DUP2 PUSH2 0x200B JUMP JUMPDEST SWAP1 POP SWAP2 SWAP1 POP JUMP JUMPDEST PUSH1 0x0 PUSH1 0x20 DUP3 ADD SWAP1 POP DUP2 DUP2 SUB PUSH1 0x0 DUP4 ADD MSTORE PUSH2 0x237B DUP2 PUSH2 0x202E JUMP JUMPDEST SWAP1 POP SWAP2 SWAP1 POP JUMP JUMPDEST PUSH1 0x0 PUSH1 0x20 DUP3 ADD SWAP1 POP PUSH2 0x2397 PUSH1 0x0 DUP4 ADD DUP5 PUSH2 0x2051 JUMP JUMPDEST SWAP3 SWAP2 POP POP JUMP JUMPDEST PUSH1 0x0 PUSH2 0x23A7 PUSH2 0x23B8 JUMP JUMPDEST SWAP1 POP PUSH2 0x23B3 DUP3 DUP3 PUSH2 0x26B3 JUMP JUMPDEST SWAP2 SWAP1 POP JUMP JUMPDEST PUSH1 0x0 PUSH1 0x40 MLOAD SWAP1 POP SWAP1 JUMP JUMPDEST PUSH1 0x0 PUSH8 0xFFFFFFFFFFFFFFFF DUP3 GT ISZERO PUSH2 0x23DD JUMPI PUSH2 0x23DC PUSH2 0x2817 JUMP JUMPDEST JUMPDEST PUSH1 0x20 DUP3 MUL SWAP1 POP PUSH1 0x20 DUP2 ADD SWAP1 POP SWAP2 SWAP1 POP JUMP JUMPDEST PUSH1 0x0 PUSH8 0xFFFFFFFFFFFFFFFF DUP3 GT ISZERO PUSH2 0x2409 JUMPI PUSH2 0x2408 PUSH2 0x2817 JUMP JUMPDEST JUMPDEST PUSH1 0x20 DUP3 MUL SWAP1 POP PUSH1 0x20 DUP2 ADD SWAP1 POP SWAP2 SWAP1 POP JUMP JUMPDEST PUSH1 0x0 PUSH8 0xFFFFFFFFFFFFFFFF DUP3 GT ISZERO PUSH2 0x2435 JUMPI PUSH2 0x2434 PUSH2 0x2817 JUMP JUMPDEST JUMPDEST PUSH2 0x243E DUP3 PUSH2 0x285F JUMP JUMPDEST SWAP1 POP PUSH1 0x20 DUP2 ADD SWAP1 POP SWAP2 SWAP1 POP JUMP JUMPDEST PUSH1 0x0 DUP2 SWAP1 POP PUSH1 0x20 DUP3 ADD SWAP1 POP SWAP2 SWAP1 POP JUMP JUMPDEST PUSH1 0x0 DUP2 SWAP1 POP PUSH1 0x20 DUP3 ADD SWAP1 POP SWAP2 SWAP1 POP JUMP JUMPDEST PUSH1 0x0 DUP2 MLOAD SWAP1 POP SWAP2 SWAP1 POP JUMP JUMPDEST PUSH1 0x0 DUP2 MLOAD SWAP1 POP SWAP2 SWAP1 POP JUMP JUMPDEST PUSH1 0x0 DUP2 MLOAD SWAP1 POP SWAP2 SWAP1 POP JUMP JUMPDEST PUSH1 0x0 PUSH1 0x20 DUP3 ADD SWAP1 POP SWAP2 SWAP1 POP JUMP JUMPDEST PUSH1 0x0 PUSH1 0x20 DUP3 ADD SWAP1 POP SWAP2 SWAP1 POP JUMP JUMPDEST PUSH1 0x0 DUP2 SWAP1 POP SWAP3 SWAP2 POP POP JUMP JUMPDEST PUSH1 0x0 DUP2 SWAP1 POP SWAP3 SWAP2 POP POP JUMP JUMPDEST PUSH1 0x0 DUP3 DUP3 MSTORE PUSH1 0x20 DUP3 ADD SWAP1 POP SWAP3 SWAP2 POP POP JUMP JUMPDEST PUSH1 0x0 DUP2 SWAP1 POP SWAP3 SWAP2 POP POP JUMP JUMPDEST PUSH1 0x0 PUSH2 0x24E3 DUP3 PUSH2 0x2635 JUMP JUMPDEST SWAP2 POP PUSH2 0x24EE DUP4 PUSH2 0x2635 JUMP JUMPDEST SWAP3 POP DUP3 PUSH32 0xFFFFFFFFFFFFFFFFFFFFFFFFFFFFFFFFFFFFFFFFFFFFFFFFFFFFFFFFFFFFFFFF SUB DUP3 GT ISZERO PUSH2 0x2523 JUMPI PUSH2 0x2522 PUSH2 0x275B JUMP JUMPDEST JUMPDEST DUP3 DUP3 ADD SWAP1 POP SWAP3 SWAP2 POP POP JUMP JUMPDEST PUSH1 0x0 PUSH2 0x2539 DUP3 PUSH2 0x2635 JUMP JUMPDEST SWAP2 POP PUSH2 0x2544 DUP4 PUSH2 0x2635 JUMP JUMPDEST SWAP3 POP DUP3 PUSH2 0x2554 JUMPI PUSH2 0x2553 PUSH2 0x278A JUMP JUMPDEST JUMPDEST DUP3 DUP3 DIV SWAP1 POP SWAP3 SWAP2 POP POP JUMP JUMPDEST PUSH1 0x0 PUSH2 0x256A DUP3 PUSH2 0x2635 JUMP JUMPDEST SWAP2 POP PUSH2 0x2575 DUP4 PUSH2 0x2635 JUMP JUMPDEST SWAP3 POP DUP2 PUSH32 0xFFFFFFFFFFFFFFFFFFFFFFFFFFFFFFFFFFFFFFFFFFFFFFFFFFFFFFFFFFFFFFFF DIV DUP4 GT DUP3 ISZERO ISZERO AND ISZERO PUSH2 0x25AE JUMPI PUSH2 0x25AD PUSH2 0x275B JUMP JUMPDEST JUMPDEST DUP3 DUP3 MUL SWAP1 POP SWAP3 SWAP2 POP POP JUMP JUMPDEST PUSH1 0x0 PUSH2 0x25C4 DUP3 PUSH2 0x2635 JUMP JUMPDEST SWAP2 POP PUSH2 0x25CF DUP4 PUSH2 0x2635 JUMP JUMPDEST SWAP3 POP DUP3 DUP3 LT ISZERO PUSH2 0x25E2 JUMPI PUSH2 0x25E1 PUSH2 0x275B JUMP JUMPDEST JUMPDEST DUP3 DUP3 SUB SWAP1 POP SWAP3 SWAP2 POP POP JUMP JUMPDEST PUSH1 0x0 PUSH2 0x25F8 DUP3 PUSH2 0x2615 JUMP JUMPDEST SWAP1 POP SWAP2 SWAP1 POP JUMP JUMPDEST PUSH1 0x0 DUP2 ISZERO ISZERO SWAP1 POP SWAP2 SWAP1 POP JUMP JUMPDEST PUSH1 0x0 DUP2 SWAP1 POP SWAP2 SWAP1 POP JUMP JUMPDEST PUSH1 0x0 PUSH20 0xFFFFFFFFFFFFFFFFFFFFFFFFFFFFFFFFFFFFFFFF DUP3 AND SWAP1 POP SWAP2 SWAP1 POP JUMP JUMPDEST PUSH1 0x0 DUP2 SWAP1 POP SWAP2 SWAP1 POP JUMP JUMPDEST DUP3 DUP2 DUP4 CALLDATACOPY PUSH1 0x0 DUP4 DUP4 ADD MSTORE POP POP POP JUMP JUMPDEST PUSH1 0x0 JUMPDEST DUP4 DUP2 LT ISZERO PUSH2 0x266C JUMPI DUP1 DUP3 ADD MLOAD DUP2 DUP5 ADD MSTORE PUSH1 0x20 DUP2 ADD SWAP1 POP PUSH2 0x2651 JUMP JUMPDEST DUP4 DUP2 GT ISZERO PUSH2 0x267B JUMPI PUSH1 0x0 DUP5 DUP5 ADD MSTORE JUMPDEST POP POP POP POP JUMP JUMPDEST PUSH1 0x0 PUSH1 0x2 DUP3 DIV SWAP1 POP PUSH1 0x1 DUP3 AND DUP1 PUSH2 0x2699 JUMPI PUSH1 0x7F DUP3 AND SWAP2 POP JUMPDEST PUSH1 0x20 DUP3 LT DUP2 EQ ISZERO PUSH2 0x26AD JUMPI PUSH2 0x26AC PUSH2 0x27B9 JUMP JUMPDEST JUMPDEST POP SWAP2 SWAP1 POP JUMP JUMPDEST PUSH2 0x26BC DUP3 PUSH2 0x285F JUMP JUMPDEST DUP2 ADD DUP2 DUP2 LT PUSH8 0xFFFFFFFFFFFFFFFF DUP3 GT OR ISZERO PUSH2 0x26DB JUMPI PUSH2 0x26DA PUSH2 0x2817 JUMP JUMPDEST JUMPDEST DUP1 PUSH1 0x40 MSTORE POP POP POP JUMP JUMPDEST PUSH1 0x0 PUSH2 0x26EF DUP3 PUSH2 0x2635 JUMP JUMPDEST SWAP2 POP PUSH32 0xFFFFFFFFFFFFFFFFFFFFFFFFFFFFFFFFFFFFFFFFFFFFFFFFFFFFFFFFFFFFFFFF DUP3 EQ ISZERO PUSH2 0x2722 JUMPI PUSH2 0x2721 PUSH2 0x275B JUMP JUMPDEST JUMPDEST PUSH1 0x1 DUP3 ADD SWAP1 POP SWAP2 SWAP1 POP JUMP JUMPDEST PUSH1 0x0 PUSH2 0x2738 DUP3 PUSH2 0x273F JUMP JUMPDEST SWAP1 POP SWAP2 SWAP1 POP JUMP JUMPDEST PUSH1 0x0 PUSH2 0x274A DUP3 PUSH2 0x2870 JUMP JUMPDEST SWAP1 POP SWAP2 SWAP1 POP JUMP JUMPDEST PUSH1 0x0 DUP2 SWAP1 POP SWAP2 SWAP1 POP JUMP JUMPDEST PUSH32 0x4E487B7100000000000000000000000000000000000000000000000000000000 PUSH1 0x0 MSTORE PUSH1 0x11 PUSH1 0x4 MSTORE PUSH1 0x24 PUSH1 0x0 REVERT JUMPDEST PUSH32 0x4E487B7100000000000000000000000000000000000000000000000000000000 PUSH1 0x0 MSTORE PUSH1 0x12 PUSH1 0x4 MSTORE PUSH1 0x24 PUSH1 0x0 REVERT JUMPDEST PUSH32 0x4E487B7100000000000000000000000000000000000000000000000000000000 PUSH1 0x0 MSTORE PUSH1 0x22 PUSH1 0x4 MSTORE PUSH1 0x24 PUSH1 0x0 REVERT JUMPDEST PUSH32 0x4E487B7100000000000000000000000000000000000000000000000000000000 PUSH1 0x0 MSTORE PUSH1 0x32 PUSH1 0x4 MSTORE PUSH1 0x24 PUSH1 0x0 REVERT JUMPDEST PUSH32 0x4E487B7100000000000000000000000000000000000000000000000000000000 PUSH1 0x0 MSTORE PUSH1 0x41 PUSH1 0x4 MSTORE PUSH1 0x24 PUSH1 0x0 REVERT JUMPDEST PUSH1 0x0 DUP1 REVERT JUMPDEST PUSH1 0x0 DUP1 REVERT JUMPDEST PUSH1 0x0 DUP1 REVERT JUMPDEST PUSH1 0x0 DUP1 REVERT JUMPDEST PUSH1 0x0 DUP1 REVERT JUMPDEST PUSH1 0x0 PUSH1 0x1F NOT PUSH1 0x1F DUP4 ADD AND SWAP1 POP SWAP2 SWAP1 POP JUMP JUMPDEST PUSH1 0x0 DUP2 PUSH1 0x60 SHL SWAP1 POP SWAP2 SWAP1 POP JUMP JUMPDEST PUSH32 0x5472616E73616374696F6E2073656E7420696E636F7272656374204554482061 PUSH1 0x0 DUP3 ADD MSTORE PUSH32 0x6D6F756E742E0000000000000000000000000000000000000000000000000000 PUSH1 0x20 DUP3 ADD MSTORE POP JUMP JUMPDEST PUSH32 0x4F776E61626C653A206E6577206F776E657220697320746865207A65726F2061 PUSH1 0x0 DUP3 ADD MSTORE PUSH32 0x6464726573730000000000000000000000000000000000000000000000000000 PUSH1 0x20 DUP3 ADD MSTORE POP JUMP JUMPDEST PUSH32 0x5472616E73616374696F6E2073656E742045544820666F7220616E2045524332 PUSH1 0x0 DUP3 ADD MSTORE PUSH32 0x3020696E766F6963652E00000000000000000000000000000000000000000000 PUSH1 0x20 DUP3 ADD MSTORE POP JUMP JUMPDEST PUSH32 0x556E61626C6520746F2070617920616D6F756E74206475652E00000000000000 PUSH1 0x0 DUP3 ADD MSTORE POP JUMP JUMPDEST PUSH32 0x4F776E61626C653A2063616C6C6572206973206E6F7420746865206F776E6572 PUSH1 0x0 DUP3 ADD MSTORE POP JUMP JUMPDEST PUSH32 0x556E61626C6520746F20706179206665657320616D6F756E74206475652E0000 PUSH1 0x0 DUP3 ADD MSTORE POP JUMP JUMPDEST PUSH32 0x5265656E7472616E637947756172643A207265656E7472616E742063616C6C00 PUSH1 0x0 DUP3 ADD MSTORE POP JUMP JUMPDEST PUSH2 0x2A17 DUP2 PUSH2 0x25ED JUMP JUMPDEST DUP2 EQ PUSH2 0x2A22 JUMPI PUSH1 0x0 DUP1 REVERT JUMPDEST POP JUMP JUMPDEST PUSH2 0x2A2E DUP2 PUSH2 0x25FF JUMP JUMPDEST DUP2 EQ PUSH2 0x2A39 JUMPI PUSH1 0x0 DUP1 REVERT JUMPDEST POP JUMP JUMPDEST PUSH2 0x2A45 DUP2 PUSH2 0x260B JUMP JUMPDEST DUP2 EQ PUSH2 0x2A50 JUMPI PUSH1 0x0 DUP1 REVERT JUMPDEST POP JUMP JUMPDEST PUSH2 0x2A5C DUP2 PUSH2 0x2635 JUMP JUMPDEST DUP2 EQ PUSH2 0x2A67 JUMPI PUSH1 0x0 DUP1 REVERT JUMPDEST POP JUMP INVALID LOG2 PUSH5 0x6970667358 0x22 SLT KECCAK256 0x4B DUP2 PUSH24 0x2F8DAC36358160B339B33BDA1D0C0B42D2F196BA37DDC68D 0xB7 0x5E 0xC5 PUSH28 0xDE64736F6C6343000806003300000000000000000000000000000000 "
        },
        "gasEstimates": {
          "creation": {
            "codeDepositCost": "2182400",
            "executionCost": "infinite",
            "totalCost": "infinite"
          },
          "external": {
            "cancelInvoice(string,uint256,address,uint256,address,address[],uint256[],uint256,bytes32)": "infinite",
            "cancelledInvoiceUUIDs(bytes32)": "2863",
            "contractVersion()": "infinite",
            "createAndPayInvoice(string,uint256,address,uint256,address,address[],uint256[],uint256,bytes32)": "infinite",
            "getInvoiceAmountPaid(bytes32)": "2852",
            "getInvoiceDescription(bytes32)": "infinite",
            "getInvoiceEthBlockPaidAt(bytes32)": "2809",
            "getInvoicePayer(bytes32)": "2961",
            "getInvoiceTokenCurrency(bytes32)": "2988",
            "getInvoiceUUID(string,uint256,address,uint256,address,address[],uint256[],uint256)": "infinite",
            "invoiceExpiresAt(bytes32)": "2898",
            "invoiceHasExpired(bytes32)": "infinite",
            "invoiceWasCancelled(bytes32)": "2866",
            "invoiceWasCreated(bytes32)": "2939",
            "invoiceWasDisabled(bytes32)": "infinite",
            "invoiceWasPaid(bytes32)": "5007",
            "invoices(bytes32)": "infinite",
            "lockContract()": "26762",
            "owner()": "2545",
            "renounceOwnership()": "30463",
            "transferOwnership(address)": "30811"
          },
          "internal": {
            "_createInvoice(string memory,uint256,address,uint256,address,address[] memory,uint256[] memory,uint256,bytes32)": "infinite",
            "_payInvoice(bytes32)": "infinite",
            "_payTokenAmount(address,address,address,uint256)": "infinite"
          }
        },
        "methodIdentifiers": {
          "cancelInvoice(string,uint256,address,uint256,address,address[],uint256[],uint256,bytes32)": "5a722a07",
          "cancelledInvoiceUUIDs(bytes32)": "9f7aa730",
          "contractVersion()": "a0a8e460",
          "createAndPayInvoice(string,uint256,address,uint256,address,address[],uint256[],uint256,bytes32)": "f36ad912",
          "getInvoiceAmountPaid(bytes32)": "f20b93ea",
          "getInvoiceDescription(bytes32)": "8f65cc57",
          "getInvoiceEthBlockPaidAt(bytes32)": "55f47162",
          "getInvoicePayer(bytes32)": "401de830",
          "getInvoiceTokenCurrency(bytes32)": "6e76dc5f",
          "getInvoiceUUID(string,uint256,address,uint256,address,address[],uint256[],uint256)": "3d952b89",
          "invoiceExpiresAt(bytes32)": "44b2c1f4",
          "invoiceHasExpired(bytes32)": "08ce5e5a",
          "invoiceWasCancelled(bytes32)": "c3eaf5bf",
          "invoiceWasCreated(bytes32)": "aede7096",
          "invoiceWasDisabled(bytes32)": "02fd4b82",
          "invoiceWasPaid(bytes32)": "b85398e4",
          "invoices(bytes32)": "f8a8a076",
          "lockContract()": "753868e3",
          "owner()": "8da5cb5b",
          "renounceOwnership()": "715018a6",
          "transferOwnership(address)": "f2fde38b"
        }
      },
      "storageLayout": {
        "storage": [
          {
            "astId": 7,
            "contract": "contracts/PayspecV2.sol:Payspec",
            "label": "_owner",
            "offset": 0,
            "slot": "0",
            "type": "t_address"
          },
          {
            "astId": 115,
            "contract": "contracts/PayspecV2.sol:Payspec",
            "label": "_status",
            "offset": 0,
            "slot": "1",
            "type": "t_uint256"
          },
          {
            "astId": 535,
            "contract": "contracts/PayspecV2.sol:Payspec",
            "label": "invoices",
            "offset": 0,
            "slot": "2",
            "type": "t_mapping(t_bytes32,t_struct(Invoice)585_storage)"
          },
          {
            "astId": 539,
            "contract": "contracts/PayspecV2.sol:Payspec",
            "label": "cancelledInvoiceUUIDs",
            "offset": 0,
            "slot": "3",
            "type": "t_mapping(t_bytes32,t_bool)"
          },
          {
            "astId": 542,
            "contract": "contracts/PayspecV2.sol:Payspec",
            "label": "lockedByOwner",
            "offset": 0,
            "slot": "4",
            "type": "t_bool"
          }
        ],
        "types": {
          "t_address": {
            "encoding": "inplace",
            "label": "address",
            "numberOfBytes": "20"
          },
          "t_array(t_address)dyn_storage": {
            "base": "t_address",
            "encoding": "dynamic_array",
            "label": "address[]",
            "numberOfBytes": "32"
          },
          "t_array(t_uint256)dyn_storage": {
            "base": "t_uint256",
            "encoding": "dynamic_array",
            "label": "uint256[]",
            "numberOfBytes": "32"
          },
          "t_bool": {
            "encoding": "inplace",
            "label": "bool",
            "numberOfBytes": "1"
          },
          "t_bytes32": {
            "encoding": "inplace",
            "label": "bytes32",
            "numberOfBytes": "32"
          },
          "t_mapping(t_bytes32,t_bool)": {
            "encoding": "mapping",
            "key": "t_bytes32",
            "label": "mapping(bytes32 => bool)",
            "numberOfBytes": "32",
            "value": "t_bool"
          },
          "t_mapping(t_bytes32,t_struct(Invoice)585_storage)": {
            "encoding": "mapping",
            "key": "t_bytes32",
            "label": "mapping(bytes32 => struct Payspec.Invoice)",
            "numberOfBytes": "32",
            "value": "t_struct(Invoice)585_storage"
          },
          "t_string_storage": {
            "encoding": "bytes",
            "label": "string",
            "numberOfBytes": "32"
          },
          "t_struct(Invoice)585_storage": {
            "encoding": "inplace",
            "label": "struct Payspec.Invoice",
            "members": [
              {
                "astId": 558,
                "contract": "contracts/PayspecV2.sol:Payspec",
                "label": "uuid",
                "offset": 0,
                "slot": "0",
                "type": "t_bytes32"
              },
              {
                "astId": 560,
                "contract": "contracts/PayspecV2.sol:Payspec",
                "label": "description",
                "offset": 0,
                "slot": "1",
                "type": "t_string_storage"
              },
              {
                "astId": 562,
                "contract": "contracts/PayspecV2.sol:Payspec",
                "label": "nonce",
                "offset": 0,
                "slot": "2",
                "type": "t_uint256"
              },
              {
                "astId": 564,
                "contract": "contracts/PayspecV2.sol:Payspec",
                "label": "created",
                "offset": 0,
                "slot": "3",
                "type": "t_bool"
              },
              {
                "astId": 566,
                "contract": "contracts/PayspecV2.sol:Payspec",
                "label": "token",
                "offset": 1,
                "slot": "3",
                "type": "t_address"
              },
              {
                "astId": 568,
                "contract": "contracts/PayspecV2.sol:Payspec",
                "label": "amountDue",
                "offset": 0,
                "slot": "4",
                "type": "t_uint256"
              },
              {
                "astId": 570,
                "contract": "contracts/PayspecV2.sol:Payspec",
                "label": "payTo",
                "offset": 0,
                "slot": "5",
                "type": "t_address"
              },
              {
                "astId": 573,
                "contract": "contracts/PayspecV2.sol:Payspec",
                "label": "feeAddresses",
                "offset": 0,
                "slot": "6",
                "type": "t_array(t_address)dyn_storage"
              },
              {
                "astId": 576,
                "contract": "contracts/PayspecV2.sol:Payspec",
                "label": "feePercents",
                "offset": 0,
                "slot": "7",
                "type": "t_array(t_uint256)dyn_storage"
              },
              {
                "astId": 578,
                "contract": "contracts/PayspecV2.sol:Payspec",
                "label": "paidBy",
                "offset": 0,
                "slot": "8",
                "type": "t_address"
              },
              {
                "astId": 580,
                "contract": "contracts/PayspecV2.sol:Payspec",
                "label": "amountPaid",
                "offset": 0,
                "slot": "9",
                "type": "t_uint256"
              },
              {
                "astId": 582,
                "contract": "contracts/PayspecV2.sol:Payspec",
                "label": "ethBlockPaidAt",
                "offset": 0,
                "slot": "10",
                "type": "t_uint256"
              },
              {
                "astId": 584,
                "contract": "contracts/PayspecV2.sol:Payspec",
                "label": "ethBlockExpiresAt",
                "offset": 0,
                "slot": "11",
                "type": "t_uint256"
              }
            ],
            "numberOfBytes": "384"
          },
          "t_uint256": {
            "encoding": "inplace",
            "label": "uint256",
            "numberOfBytes": "32"
          }
        }
      },
      "userdoc": {
        "kind": "user",
        "methods": {},
        "version": 1
      }
    }
  }
}